Archive member included to satisfy reference by file (symbol)

c:/st/stm32cubeide_1.10.1/stm32cubeide/plugins/com.st.stm32cube.ide.mcu.externaltools.gnu-tools-for-stm32.10.3-2021.10.win32_1.0.0.202111181127/tools/bin/../lib/gcc/arm-none-eabi/10.3.1/../../../../arm-none-eabi/lib/thumb/v7-m/nofp\libc_nano.a(lib_a-errno.o)
                              ./Core/Src/syscalls.o (__errno)
c:/st/stm32cubeide_1.10.1/stm32cubeide/plugins/com.st.stm32cube.ide.mcu.externaltools.gnu-tools-for-stm32.10.3-2021.10.win32_1.0.0.202111181127/tools/bin/../lib/gcc/arm-none-eabi/10.3.1/../../../../arm-none-eabi/lib/thumb/v7-m/nofp\libc_nano.a(lib_a-exit.o)
                              c:/st/stm32cubeide_1.10.1/stm32cubeide/plugins/com.st.stm32cube.ide.mcu.externaltools.gnu-tools-for-stm32.10.3-2021.10.win32_1.0.0.202111181127/tools/bin/../lib/gcc/arm-none-eabi/10.3.1/../../../../arm-none-eabi/lib/thumb/v7-m/nofp/crt0.o (exit)
c:/st/stm32cubeide_1.10.1/stm32cubeide/plugins/com.st.stm32cube.ide.mcu.externaltools.gnu-tools-for-stm32.10.3-2021.10.win32_1.0.0.202111181127/tools/bin/../lib/gcc/arm-none-eabi/10.3.1/../../../../arm-none-eabi/lib/thumb/v7-m/nofp\libc_nano.a(lib_a-impure.o)
                              c:/st/stm32cubeide_1.10.1/stm32cubeide/plugins/com.st.stm32cube.ide.mcu.externaltools.gnu-tools-for-stm32.10.3-2021.10.win32_1.0.0.202111181127/tools/bin/../lib/gcc/arm-none-eabi/10.3.1/../../../../arm-none-eabi/lib/thumb/v7-m/nofp\libc_nano.a(lib_a-exit.o) (_global_impure_ptr)
c:/st/stm32cubeide_1.10.1/stm32cubeide/plugins/com.st.stm32cube.ide.mcu.externaltools.gnu-tools-for-stm32.10.3-2021.10.win32_1.0.0.202111181127/tools/bin/../lib/gcc/arm-none-eabi/10.3.1/../../../../arm-none-eabi/lib/thumb/v7-m/nofp\libc_nano.a(lib_a-init.o)
                              c:/st/stm32cubeide_1.10.1/stm32cubeide/plugins/com.st.stm32cube.ide.mcu.externaltools.gnu-tools-for-stm32.10.3-2021.10.win32_1.0.0.202111181127/tools/bin/../lib/gcc/arm-none-eabi/10.3.1/../../../../arm-none-eabi/lib/thumb/v7-m/nofp/crt0.o (__libc_init_array)
c:/st/stm32cubeide_1.10.1/stm32cubeide/plugins/com.st.stm32cube.ide.mcu.externaltools.gnu-tools-for-stm32.10.3-2021.10.win32_1.0.0.202111181127/tools/bin/../lib/gcc/arm-none-eabi/10.3.1/../../../../arm-none-eabi/lib/thumb/v7-m/nofp\libc_nano.a(lib_a-malloc.o)
                              ./App/Timeline_Manage.o (malloc)
c:/st/stm32cubeide_1.10.1/stm32cubeide/plugins/com.st.stm32cube.ide.mcu.externaltools.gnu-tools-for-stm32.10.3-2021.10.win32_1.0.0.202111181127/tools/bin/../lib/gcc/arm-none-eabi/10.3.1/../../../../arm-none-eabi/lib/thumb/v7-m/nofp\libc_nano.a(lib_a-memset.o)
                              c:/st/stm32cubeide_1.10.1/stm32cubeide/plugins/com.st.stm32cube.ide.mcu.externaltools.gnu-tools-for-stm32.10.3-2021.10.win32_1.0.0.202111181127/tools/bin/../lib/gcc/arm-none-eabi/10.3.1/../../../../arm-none-eabi/lib/thumb/v7-m/nofp/crt0.o (memset)
c:/st/stm32cubeide_1.10.1/stm32cubeide/plugins/com.st.stm32cube.ide.mcu.externaltools.gnu-tools-for-stm32.10.3-2021.10.win32_1.0.0.202111181127/tools/bin/../lib/gcc/arm-none-eabi/10.3.1/../../../../arm-none-eabi/lib/thumb/v7-m/nofp\libc_nano.a(lib_a-nano-freer.o)
                              c:/st/stm32cubeide_1.10.1/stm32cubeide/plugins/com.st.stm32cube.ide.mcu.externaltools.gnu-tools-for-stm32.10.3-2021.10.win32_1.0.0.202111181127/tools/bin/../lib/gcc/arm-none-eabi/10.3.1/../../../../arm-none-eabi/lib/thumb/v7-m/nofp\libc_nano.a(lib_a-malloc.o) (_free_r)
c:/st/stm32cubeide_1.10.1/stm32cubeide/plugins/com.st.stm32cube.ide.mcu.externaltools.gnu-tools-for-stm32.10.3-2021.10.win32_1.0.0.202111181127/tools/bin/../lib/gcc/arm-none-eabi/10.3.1/../../../../arm-none-eabi/lib/thumb/v7-m/nofp\libc_nano.a(lib_a-nano-mallocr.o)
                              c:/st/stm32cubeide_1.10.1/stm32cubeide/plugins/com.st.stm32cube.ide.mcu.externaltools.gnu-tools-for-stm32.10.3-2021.10.win32_1.0.0.202111181127/tools/bin/../lib/gcc/arm-none-eabi/10.3.1/../../../../arm-none-eabi/lib/thumb/v7-m/nofp\libc_nano.a(lib_a-malloc.o) (_malloc_r)
c:/st/stm32cubeide_1.10.1/stm32cubeide/plugins/com.st.stm32cube.ide.mcu.externaltools.gnu-tools-for-stm32.10.3-2021.10.win32_1.0.0.202111181127/tools/bin/../lib/gcc/arm-none-eabi/10.3.1/../../../../arm-none-eabi/lib/thumb/v7-m/nofp\libc_nano.a(lib_a-sbrkr.o)
                              c:/st/stm32cubeide_1.10.1/stm32cubeide/plugins/com.st.stm32cube.ide.mcu.externaltools.gnu-tools-for-stm32.10.3-2021.10.win32_1.0.0.202111181127/tools/bin/../lib/gcc/arm-none-eabi/10.3.1/../../../../arm-none-eabi/lib/thumb/v7-m/nofp\libc_nano.a(lib_a-nano-mallocr.o) (_sbrk_r)
c:/st/stm32cubeide_1.10.1/stm32cubeide/plugins/com.st.stm32cube.ide.mcu.externaltools.gnu-tools-for-stm32.10.3-2021.10.win32_1.0.0.202111181127/tools/bin/../lib/gcc/arm-none-eabi/10.3.1/../../../../arm-none-eabi/lib/thumb/v7-m/nofp\libc_nano.a(lib_a-sprintf.o)
                              ./App/Menu/Timeline_List_Menu.o (sprintf)
c:/st/stm32cubeide_1.10.1/stm32cubeide/plugins/com.st.stm32cube.ide.mcu.externaltools.gnu-tools-for-stm32.10.3-2021.10.win32_1.0.0.202111181127/tools/bin/../lib/gcc/arm-none-eabi/10.3.1/../../../../arm-none-eabi/lib/thumb/v7-m/nofp\libc_nano.a(lib_a-strcpy.o)
                              ./App/Menu/Main_Menu.o (strcpy)
c:/st/stm32cubeide_1.10.1/stm32cubeide/plugins/com.st.stm32cube.ide.mcu.externaltools.gnu-tools-for-stm32.10.3-2021.10.win32_1.0.0.202111181127/tools/bin/../lib/gcc/arm-none-eabi/10.3.1/../../../../arm-none-eabi/lib/thumb/v7-m/nofp\libc_nano.a(lib_a-strlen.o)
                              ./Libraries/LCD_I2C.o (strlen)
c:/st/stm32cubeide_1.10.1/stm32cubeide/plugins/com.st.stm32cube.ide.mcu.externaltools.gnu-tools-for-stm32.10.3-2021.10.win32_1.0.0.202111181127/tools/bin/../lib/gcc/arm-none-eabi/10.3.1/../../../../arm-none-eabi/lib/thumb/v7-m/nofp\libc_nano.a(lib_a-vsprintf.o)
                              ./Libraries/LCD_I2C.o (vsprintf)
c:/st/stm32cubeide_1.10.1/stm32cubeide/plugins/com.st.stm32cube.ide.mcu.externaltools.gnu-tools-for-stm32.10.3-2021.10.win32_1.0.0.202111181127/tools/bin/../lib/gcc/arm-none-eabi/10.3.1/../../../../arm-none-eabi/lib/thumb/v7-m/nofp\libc_nano.a(lib_a-mlock.o)
                              c:/st/stm32cubeide_1.10.1/stm32cubeide/plugins/com.st.stm32cube.ide.mcu.externaltools.gnu-tools-for-stm32.10.3-2021.10.win32_1.0.0.202111181127/tools/bin/../lib/gcc/arm-none-eabi/10.3.1/../../../../arm-none-eabi/lib/thumb/v7-m/nofp\libc_nano.a(lib_a-nano-freer.o) (__malloc_lock)
c:/st/stm32cubeide_1.10.1/stm32cubeide/plugins/com.st.stm32cube.ide.mcu.externaltools.gnu-tools-for-stm32.10.3-2021.10.win32_1.0.0.202111181127/tools/bin/../lib/gcc/arm-none-eabi/10.3.1/../../../../arm-none-eabi/lib/thumb/v7-m/nofp\libc_nano.a(lib_a-nano-svfprintf.o)
                              c:/st/stm32cubeide_1.10.1/stm32cubeide/plugins/com.st.stm32cube.ide.mcu.externaltools.gnu-tools-for-stm32.10.3-2021.10.win32_1.0.0.202111181127/tools/bin/../lib/gcc/arm-none-eabi/10.3.1/../../../../arm-none-eabi/lib/thumb/v7-m/nofp\libc_nano.a(lib_a-sprintf.o) (_svfprintf_r)
c:/st/stm32cubeide_1.10.1/stm32cubeide/plugins/com.st.stm32cube.ide.mcu.externaltools.gnu-tools-for-stm32.10.3-2021.10.win32_1.0.0.202111181127/tools/bin/../lib/gcc/arm-none-eabi/10.3.1/../../../../arm-none-eabi/lib/thumb/v7-m/nofp\libc_nano.a(lib_a-nano-vfprintf_i.o)
                              c:/st/stm32cubeide_1.10.1/stm32cubeide/plugins/com.st.stm32cube.ide.mcu.externaltools.gnu-tools-for-stm32.10.3-2021.10.win32_1.0.0.202111181127/tools/bin/../lib/gcc/arm-none-eabi/10.3.1/../../../../arm-none-eabi/lib/thumb/v7-m/nofp\libc_nano.a(lib_a-nano-svfprintf.o) (_printf_i)
c:/st/stm32cubeide_1.10.1/stm32cubeide/plugins/com.st.stm32cube.ide.mcu.externaltools.gnu-tools-for-stm32.10.3-2021.10.win32_1.0.0.202111181127/tools/bin/../lib/gcc/arm-none-eabi/10.3.1/../../../../arm-none-eabi/lib/thumb/v7-m/nofp\libc_nano.a(lib_a-reent.o)
                              c:/st/stm32cubeide_1.10.1/stm32cubeide/plugins/com.st.stm32cube.ide.mcu.externaltools.gnu-tools-for-stm32.10.3-2021.10.win32_1.0.0.202111181127/tools/bin/../lib/gcc/arm-none-eabi/10.3.1/../../../../arm-none-eabi/lib/thumb/v7-m/nofp\libc_nano.a(lib_a-sbrkr.o) (errno)
c:/st/stm32cubeide_1.10.1/stm32cubeide/plugins/com.st.stm32cube.ide.mcu.externaltools.gnu-tools-for-stm32.10.3-2021.10.win32_1.0.0.202111181127/tools/bin/../lib/gcc/arm-none-eabi/10.3.1/../../../../arm-none-eabi/lib/thumb/v7-m/nofp\libc_nano.a(lib_a-lock.o)
                              c:/st/stm32cubeide_1.10.1/stm32cubeide/plugins/com.st.stm32cube.ide.mcu.externaltools.gnu-tools-for-stm32.10.3-2021.10.win32_1.0.0.202111181127/tools/bin/../lib/gcc/arm-none-eabi/10.3.1/../../../../arm-none-eabi/lib/thumb/v7-m/nofp\libc_nano.a(lib_a-mlock.o) (__retarget_lock_acquire_recursive)
c:/st/stm32cubeide_1.10.1/stm32cubeide/plugins/com.st.stm32cube.ide.mcu.externaltools.gnu-tools-for-stm32.10.3-2021.10.win32_1.0.0.202111181127/tools/bin/../lib/gcc/arm-none-eabi/10.3.1/../../../../arm-none-eabi/lib/thumb/v7-m/nofp\libc_nano.a(lib_a-memchr-stub.o)
                              c:/st/stm32cubeide_1.10.1/stm32cubeide/plugins/com.st.stm32cube.ide.mcu.externaltools.gnu-tools-for-stm32.10.3-2021.10.win32_1.0.0.202111181127/tools/bin/../lib/gcc/arm-none-eabi/10.3.1/../../../../arm-none-eabi/lib/thumb/v7-m/nofp\libc_nano.a(lib_a-nano-svfprintf.o) (memchr)
c:/st/stm32cubeide_1.10.1/stm32cubeide/plugins/com.st.stm32cube.ide.mcu.externaltools.gnu-tools-for-stm32.10.3-2021.10.win32_1.0.0.202111181127/tools/bin/../lib/gcc/arm-none-eabi/10.3.1/../../../../arm-none-eabi/lib/thumb/v7-m/nofp\libc_nano.a(lib_a-memcpy-stub.o)
                              c:/st/stm32cubeide_1.10.1/stm32cubeide/plugins/com.st.stm32cube.ide.mcu.externaltools.gnu-tools-for-stm32.10.3-2021.10.win32_1.0.0.202111181127/tools/bin/../lib/gcc/arm-none-eabi/10.3.1/../../../../arm-none-eabi/lib/thumb/v7-m/nofp\libc_nano.a(lib_a-nano-svfprintf.o) (memcpy)
c:/st/stm32cubeide_1.10.1/stm32cubeide/plugins/com.st.stm32cube.ide.mcu.externaltools.gnu-tools-for-stm32.10.3-2021.10.win32_1.0.0.202111181127/tools/bin/../lib/gcc/arm-none-eabi/10.3.1/../../../../arm-none-eabi/lib/thumb/v7-m/nofp\libc_nano.a(lib_a-memmove.o)
                              c:/st/stm32cubeide_1.10.1/stm32cubeide/plugins/com.st.stm32cube.ide.mcu.externaltools.gnu-tools-for-stm32.10.3-2021.10.win32_1.0.0.202111181127/tools/bin/../lib/gcc/arm-none-eabi/10.3.1/../../../../arm-none-eabi/lib/thumb/v7-m/nofp\libc_nano.a(lib_a-nano-svfprintf.o) (memmove)
c:/st/stm32cubeide_1.10.1/stm32cubeide/plugins/com.st.stm32cube.ide.mcu.externaltools.gnu-tools-for-stm32.10.3-2021.10.win32_1.0.0.202111181127/tools/bin/../lib/gcc/arm-none-eabi/10.3.1/../../../../arm-none-eabi/lib/thumb/v7-m/nofp\libc_nano.a(lib_a-nano-reallocr.o)
                              c:/st/stm32cubeide_1.10.1/stm32cubeide/plugins/com.st.stm32cube.ide.mcu.externaltools.gnu-tools-for-stm32.10.3-2021.10.win32_1.0.0.202111181127/tools/bin/../lib/gcc/arm-none-eabi/10.3.1/../../../../arm-none-eabi/lib/thumb/v7-m/nofp\libc_nano.a(lib_a-nano-svfprintf.o) (_realloc_r)
c:/st/stm32cubeide_1.10.1/stm32cubeide/plugins/com.st.stm32cube.ide.mcu.externaltools.gnu-tools-for-stm32.10.3-2021.10.win32_1.0.0.202111181127/tools/bin/../lib/gcc/arm-none-eabi/10.3.1/../../../../arm-none-eabi/lib/thumb/v7-m/nofp\libc_nano.a(lib_a-nano-msizer.o)
                              c:/st/stm32cubeide_1.10.1/stm32cubeide/plugins/com.st.stm32cube.ide.mcu.externaltools.gnu-tools-for-stm32.10.3-2021.10.win32_1.0.0.202111181127/tools/bin/../lib/gcc/arm-none-eabi/10.3.1/../../../../arm-none-eabi/lib/thumb/v7-m/nofp\libc_nano.a(lib_a-nano-reallocr.o) (_malloc_usable_size_r)
c:/st/stm32cubeide_1.10.1/stm32cubeide/plugins/com.st.stm32cube.ide.mcu.externaltools.gnu-tools-for-stm32.10.3-2021.10.win32_1.0.0.202111181127/tools/bin/../lib/gcc/arm-none-eabi/10.3.1/thumb/v7-m/nofp\libgcc.a(_arm_addsubdf3.o)
                              ./Libraries/DHT.o (__aeabi_i2d)
c:/st/stm32cubeide_1.10.1/stm32cubeide/plugins/com.st.stm32cube.ide.mcu.externaltools.gnu-tools-for-stm32.10.3-2021.10.win32_1.0.0.202111181127/tools/bin/../lib/gcc/arm-none-eabi/10.3.1/thumb/v7-m/nofp\libgcc.a(_arm_truncdfsf2.o)
                              ./Libraries/DHT.o (__aeabi_d2f)
c:/st/stm32cubeide_1.10.1/stm32cubeide/plugins/com.st.stm32cube.ide.mcu.externaltools.gnu-tools-for-stm32.10.3-2021.10.win32_1.0.0.202111181127/tools/bin/../lib/gcc/arm-none-eabi/10.3.1/thumb/v7-m/nofp\libgcc.a(_arm_fixunssfsi.o)
                              ./App/Menu/Main_Menu.o (__aeabi_f2uiz)

Discarded input sections

 .text          0x0000000000000000        0x0 c:/st/stm32cubeide_1.10.1/stm32cubeide/plugins/com.st.stm32cube.ide.mcu.externaltools.gnu-tools-for-stm32.10.3-2021.10.win32_1.0.0.202111181127/tools/bin/../lib/gcc/arm-none-eabi/10.3.1/thumb/v7-m/nofp/crti.o
 .data          0x0000000000000000        0x0 c:/st/stm32cubeide_1.10.1/stm32cubeide/plugins/com.st.stm32cube.ide.mcu.externaltools.gnu-tools-for-stm32.10.3-2021.10.win32_1.0.0.202111181127/tools/bin/../lib/gcc/arm-none-eabi/10.3.1/thumb/v7-m/nofp/crti.o
 .bss           0x0000000000000000        0x0 c:/st/stm32cubeide_1.10.1/stm32cubeide/plugins/com.st.stm32cube.ide.mcu.externaltools.gnu-tools-for-stm32.10.3-2021.10.win32_1.0.0.202111181127/tools/bin/../lib/gcc/arm-none-eabi/10.3.1/thumb/v7-m/nofp/crti.o
 .data          0x0000000000000000        0x4 c:/st/stm32cubeide_1.10.1/stm32cubeide/plugins/com.st.stm32cube.ide.mcu.externaltools.gnu-tools-for-stm32.10.3-2021.10.win32_1.0.0.202111181127/tools/bin/../lib/gcc/arm-none-eabi/10.3.1/thumb/v7-m/nofp/crtbegin.o
 .rodata        0x0000000000000000       0x24 c:/st/stm32cubeide_1.10.1/stm32cubeide/plugins/com.st.stm32cube.ide.mcu.externaltools.gnu-tools-for-stm32.10.3-2021.10.win32_1.0.0.202111181127/tools/bin/../lib/gcc/arm-none-eabi/10.3.1/thumb/v7-m/nofp/crtbegin.o
 .text          0x0000000000000000       0x7c c:/st/stm32cubeide_1.10.1/stm32cubeide/plugins/com.st.stm32cube.ide.mcu.externaltools.gnu-tools-for-stm32.10.3-2021.10.win32_1.0.0.202111181127/tools/bin/../lib/gcc/arm-none-eabi/10.3.1/../../../../arm-none-eabi/lib/thumb/v7-m/nofp/crt0.o
 .data          0x0000000000000000        0x0 c:/st/stm32cubeide_1.10.1/stm32cubeide/plugins/com.st.stm32cube.ide.mcu.externaltools.gnu-tools-for-stm32.10.3-2021.10.win32_1.0.0.202111181127/tools/bin/../lib/gcc/arm-none-eabi/10.3.1/../../../../arm-none-eabi/lib/thumb/v7-m/nofp/crt0.o
 .bss           0x0000000000000000        0x0 c:/st/stm32cubeide_1.10.1/stm32cubeide/plugins/com.st.stm32cube.ide.mcu.externaltools.gnu-tools-for-stm32.10.3-2021.10.win32_1.0.0.202111181127/tools/bin/../lib/gcc/arm-none-eabi/10.3.1/../../../../arm-none-eabi/lib/thumb/v7-m/nofp/crt0.o
 .ARM.extab     0x0000000000000000        0x0 c:/st/stm32cubeide_1.10.1/stm32cubeide/plugins/com.st.stm32cube.ide.mcu.externaltools.gnu-tools-for-stm32.10.3-2021.10.win32_1.0.0.202111181127/tools/bin/../lib/gcc/arm-none-eabi/10.3.1/../../../../arm-none-eabi/lib/thumb/v7-m/nofp/crt0.o
 .ARM.exidx     0x0000000000000000       0x10 c:/st/stm32cubeide_1.10.1/stm32cubeide/plugins/com.st.stm32cube.ide.mcu.externaltools.gnu-tools-for-stm32.10.3-2021.10.win32_1.0.0.202111181127/tools/bin/../lib/gcc/arm-none-eabi/10.3.1/../../../../arm-none-eabi/lib/thumb/v7-m/nofp/crt0.o
 .ARM.attributes
                0x0000000000000000       0x1b c:/st/stm32cubeide_1.10.1/stm32cubeide/plugins/com.st.stm32cube.ide.mcu.externaltools.gnu-tools-for-stm32.10.3-2021.10.win32_1.0.0.202111181127/tools/bin/../lib/gcc/arm-none-eabi/10.3.1/../../../../arm-none-eabi/lib/thumb/v7-m/nofp/crt0.o
 .group         0x0000000000000000        0xc ./App/Menu/Main_Menu.o
 .group         0x0000000000000000        0xc ./App/Menu/Main_Menu.o
 .group         0x0000000000000000        0xc ./App/Menu/Main_Menu.o
 .group         0x0000000000000000        0xc ./App/Menu/Main_Menu.o
 .group         0x0000000000000000        0xc ./App/Menu/Main_Menu.o
 .group         0x0000000000000000        0xc ./App/Menu/Main_Menu.o
Memory Configuration

Name             Origin             Length             Attributes
RAM              0x0000000020000000 0x0000000000005000 xrw
FLASH            0x0000000008000000 0x0000000000010000 xr
*default*        0x0000000000000000 0xffffffffffffffff

Linker script and memory map

LOAD c:/st/stm32cubeide_1.10.1/stm32cubeide/plugins/com.st.stm32cube.ide.mcu.externaltools.gnu-tools-for-stm32.10.3-2021.10.win32_1.0.0.202111181127/tools/bin/../lib/gcc/arm-none-eabi/10.3.1/thumb/v7-m/nofp/crti.o
LOAD c:/st/stm32cubeide_1.10.1/stm32cubeide/plugins/com.st.stm32cube.ide.mcu.externaltools.gnu-tools-for-stm32.10.3-2021.10.win32_1.0.0.202111181127/tools/bin/../lib/gcc/arm-none-eabi/10.3.1/thumb/v7-m/nofp/crtbegin.o
LOAD c:/st/stm32cubeide_1.10.1/stm32cubeide/plugins/com.st.stm32cube.ide.mcu.externaltools.gnu-tools-for-stm32.10.3-2021.10.win32_1.0.0.202111181127/tools/bin/../lib/gcc/arm-none-eabi/10.3.1/../../../../arm-none-eabi/lib/thumb/v7-m/nofp/crt0.o
LOAD ./App/Menu/Main_Menu.o
LOAD ./App/Menu/Menu.o
LOAD ./App/Menu/Setting_Realtime_Menu.o
LOAD ./App/Menu/Setting_Timeline_Menu.o
LOAD ./App/Menu/Timeline_List_Menu.o
LOAD ./App/Rotary_Encoder.o
LOAD ./App/Timeline_Manage.o
LOAD ./App/real_time.o
LOAD ./Core/Src/main.o
LOAD ./Core/Src/stm32f1xx_hal_msp.o
LOAD ./Core/Src/stm32f1xx_it.o
LOAD ./Core/Src/syscalls.o
LOAD ./Core/Src/sysmem.o
LOAD ./Core/Src/system_stm32f1xx.o
LOAD ./Core/Startup/startup_stm32f103c8tx.o
LOAD ./Drivers/STM32F1xx_HAL_Driver/Src/stm32f1xx_hal.o
LOAD ./Drivers/STM32F1xx_HAL_Driver/Src/stm32f1xx_hal_cortex.o
LOAD ./Drivers/STM32F1xx_HAL_Driver/Src/stm32f1xx_hal_dma.o
LOAD ./Drivers/STM32F1xx_HAL_Driver/Src/stm32f1xx_hal_exti.o
LOAD ./Drivers/STM32F1xx_HAL_Driver/Src/stm32f1xx_hal_flash.o
LOAD ./Drivers/STM32F1xx_HAL_Driver/Src/stm32f1xx_hal_flash_ex.o
LOAD ./Drivers/STM32F1xx_HAL_Driver/Src/stm32f1xx_hal_gpio.o
LOAD ./Drivers/STM32F1xx_HAL_Driver/Src/stm32f1xx_hal_gpio_ex.o
LOAD ./Drivers/STM32F1xx_HAL_Driver/Src/stm32f1xx_hal_i2c.o
LOAD ./Drivers/STM32F1xx_HAL_Driver/Src/stm32f1xx_hal_pwr.o
LOAD ./Drivers/STM32F1xx_HAL_Driver/Src/stm32f1xx_hal_rcc.o
LOAD ./Drivers/STM32F1xx_HAL_Driver/Src/stm32f1xx_hal_rcc_ex.o
LOAD ./Drivers/STM32F1xx_HAL_Driver/Src/stm32f1xx_hal_tim.o
LOAD ./Drivers/STM32F1xx_HAL_Driver/Src/stm32f1xx_hal_tim_ex.o
LOAD ./Drivers/STM32F1xx_HAL_Driver/Src/stm32f1xx_hal_uart.o
LOAD ./Libraries/DHT.o
LOAD ./Libraries/DS3231.o
LOAD ./Libraries/Delay_us.o
LOAD ./Libraries/Encoder.o
LOAD ./Libraries/LCD_I2C.o
LOAD ./Libraries/button.o
LOAD ./Libraries/flash.o
START GROUP
LOAD c:/st/stm32cubeide_1.10.1/stm32cubeide/plugins/com.st.stm32cube.ide.mcu.externaltools.gnu-tools-for-stm32.10.3-2021.10.win32_1.0.0.202111181127/tools/bin/../lib/gcc/arm-none-eabi/10.3.1/../../../../arm-none-eabi/lib/thumb/v7-m/nofp\libc_nano.a
LOAD c:/st/stm32cubeide_1.10.1/stm32cubeide/plugins/com.st.stm32cube.ide.mcu.externaltools.gnu-tools-for-stm32.10.3-2021.10.win32_1.0.0.202111181127/tools/bin/../lib/gcc/arm-none-eabi/10.3.1/../../../../arm-none-eabi/lib/thumb/v7-m/nofp\libm.a
END GROUP
START GROUP
LOAD c:/st/stm32cubeide_1.10.1/stm32cubeide/plugins/com.st.stm32cube.ide.mcu.externaltools.gnu-tools-for-stm32.10.3-2021.10.win32_1.0.0.202111181127/tools/bin/../lib/gcc/arm-none-eabi/10.3.1/thumb/v7-m/nofp\libgcc.a
LOAD c:/st/stm32cubeide_1.10.1/stm32cubeide/plugins/com.st.stm32cube.ide.mcu.externaltools.gnu-tools-for-stm32.10.3-2021.10.win32_1.0.0.202111181127/tools/bin/../lib/gcc/arm-none-eabi/10.3.1/../../../../arm-none-eabi/lib/thumb/v7-m/nofp\libc_nano.a
END GROUP
START GROUP
LOAD c:/st/stm32cubeide_1.10.1/stm32cubeide/plugins/com.st.stm32cube.ide.mcu.externaltools.gnu-tools-for-stm32.10.3-2021.10.win32_1.0.0.202111181127/tools/bin/../lib/gcc/arm-none-eabi/10.3.1/thumb/v7-m/nofp\libgcc.a
LOAD c:/st/stm32cubeide_1.10.1/stm32cubeide/plugins/com.st.stm32cube.ide.mcu.externaltools.gnu-tools-for-stm32.10.3-2021.10.win32_1.0.0.202111181127/tools/bin/../lib/gcc/arm-none-eabi/10.3.1/../../../../arm-none-eabi/lib/thumb/v7-m/nofp\libc_nano.a
LOAD c:/st/stm32cubeide_1.10.1/stm32cubeide/plugins/com.st.stm32cube.ide.mcu.externaltools.gnu-tools-for-stm32.10.3-2021.10.win32_1.0.0.202111181127/tools/bin/../lib/gcc/arm-none-eabi/10.3.1/../../../../arm-none-eabi/lib/thumb/v7-m/nofp\libnosys.a
END GROUP
START GROUP
LOAD c:/st/stm32cubeide_1.10.1/stm32cubeide/plugins/com.st.stm32cube.ide.mcu.externaltools.gnu-tools-for-stm32.10.3-2021.10.win32_1.0.0.202111181127/tools/bin/../lib/gcc/arm-none-eabi/10.3.1/thumb/v7-m/nofp\libgcc.a
LOAD c:/st/stm32cubeide_1.10.1/stm32cubeide/plugins/com.st.stm32cube.ide.mcu.externaltools.gnu-tools-for-stm32.10.3-2021.10.win32_1.0.0.202111181127/tools/bin/../lib/gcc/arm-none-eabi/10.3.1/../../../../arm-none-eabi/lib/thumb/v7-m/nofp\libc_nano.a
LOAD c:/st/stm32cubeide_1.10.1/stm32cubeide/plugins/com.st.stm32cube.ide.mcu.externaltools.gnu-tools-for-stm32.10.3-2021.10.win32_1.0.0.202111181127/tools/bin/../lib/gcc/arm-none-eabi/10.3.1/../../../../arm-none-eabi/lib/thumb/v7-m/nofp\libnosys.a
END GROUP
LOAD c:/st/stm32cubeide_1.10.1/stm32cubeide/plugins/com.st.stm32cube.ide.mcu.externaltools.gnu-tools-for-stm32.10.3-2021.10.win32_1.0.0.202111181127/tools/bin/../lib/gcc/arm-none-eabi/10.3.1/thumb/v7-m/nofp/crtend.o
LOAD c:/st/stm32cubeide_1.10.1/stm32cubeide/plugins/com.st.stm32cube.ide.mcu.externaltools.gnu-tools-for-stm32.10.3-2021.10.win32_1.0.0.202111181127/tools/bin/../lib/gcc/arm-none-eabi/10.3.1/thumb/v7-m/nofp/crtn.o
                0x0000000020005000                _estack = (ORIGIN (RAM) + LENGTH (RAM))
                0x0000000000000200                _Min_Heap_Size = 0x200
                0x0000000000000400                _Min_Stack_Size = 0x400

.isr_vector     0x0000000008000000      0x10c
                0x0000000008000000                . = ALIGN (0x4)
 *(.isr_vector)
 .isr_vector    0x0000000008000000      0x10c ./Core/Startup/startup_stm32f103c8tx.o
                0x0000000008000000                g_pfnVectors
                0x000000000800010c                . = ALIGN (0x4)

.text           0x000000000800010c     0x7578
                0x000000000800010c                . = ALIGN (0x4)
 *(.text)
 .text          0x000000000800010c       0x40 c:/st/stm32cubeide_1.10.1/stm32cubeide/plugins/com.st.stm32cube.ide.mcu.externaltools.gnu-tools-for-stm32.10.3-2021.10.win32_1.0.0.202111181127/tools/bin/../lib/gcc/arm-none-eabi/10.3.1/thumb/v7-m/nofp/crtbegin.o
 .text          0x000000000800014c       0x10 c:/st/stm32cubeide_1.10.1/stm32cubeide/plugins/com.st.stm32cube.ide.mcu.externaltools.gnu-tools-for-stm32.10.3-2021.10.win32_1.0.0.202111181127/tools/bin/../lib/gcc/arm-none-eabi/10.3.1/../../../../arm-none-eabi/lib/thumb/v7-m/nofp\libc_nano.a(lib_a-strlen.o)
                0x000000000800014c                strlen
 .text          0x000000000800015c      0x378 c:/st/stm32cubeide_1.10.1/stm32cubeide/plugins/com.st.stm32cube.ide.mcu.externaltools.gnu-tools-for-stm32.10.3-2021.10.win32_1.0.0.202111181127/tools/bin/../lib/gcc/arm-none-eabi/10.3.1/thumb/v7-m/nofp\libgcc.a(_arm_addsubdf3.o)
                0x000000000800015c                __aeabi_drsub
                0x0000000008000164                __aeabi_dsub
                0x0000000008000164                __subdf3
                0x0000000008000168                __aeabi_dadd
                0x0000000008000168                __adddf3
                0x00000000080003e0                __floatunsidf
                0x00000000080003e0                __aeabi_ui2d
                0x0000000008000400                __floatsidf
                0x0000000008000400                __aeabi_i2d
                0x0000000008000424                __aeabi_f2d
                0x0000000008000424                __extendsfdf2
                0x0000000008000468                __floatundidf
                0x0000000008000468                __aeabi_ul2d
                0x0000000008000478                __floatdidf
                0x0000000008000478                __aeabi_l2d
 .text          0x00000000080004d4       0xa0 c:/st/stm32cubeide_1.10.1/stm32cubeide/plugins/com.st.stm32cube.ide.mcu.externaltools.gnu-tools-for-stm32.10.3-2021.10.win32_1.0.0.202111181127/tools/bin/../lib/gcc/arm-none-eabi/10.3.1/thumb/v7-m/nofp\libgcc.a(_arm_truncdfsf2.o)
                0x00000000080004d4                __truncdfsf2
                0x00000000080004d4                __aeabi_d2f
 .text          0x0000000008000574       0x40 c:/st/stm32cubeide_1.10.1/stm32cubeide/plugins/com.st.stm32cube.ide.mcu.externaltools.gnu-tools-for-stm32.10.3-2021.10.win32_1.0.0.202111181127/tools/bin/../lib/gcc/arm-none-eabi/10.3.1/thumb/v7-m/nofp\libgcc.a(_arm_fixunssfsi.o)
                0x0000000008000574                __fixunssfsi
                0x0000000008000574                __aeabi_f2uiz
 *(.text*)
 .text.MAIN_MENU_Init
                0x00000000080005b4       0xb8 ./App/Menu/Main_Menu.o
                0x00000000080005b4                MAIN_MENU_Init
 .text.MAIN_MENU_Display_Num
                0x000000000800066c       0xac ./App/Menu/Main_Menu.o
                0x000000000800066c                MAIN_MENU_Display_Num
 .text.MAIN_MENU_Display
                0x0000000008000718      0x1a4 ./App/Menu/Main_Menu.o
                0x0000000008000718                MAIN_MENU_Display
 .text.MAIN_MENU_Set_State
                0x00000000080008bc       0x24 ./App/Menu/Main_Menu.o
                0x00000000080008bc                MAIN_MENU_Set_State
 .text.MAIN_MENU_Update_Value
                0x00000000080008e0       0x1c ./App/Menu/Main_Menu.o
                0x00000000080008e0                MAIN_MENU_Update_Value
 .text.MENU_Init
                0x00000000080008fc       0x3c ./App/Menu/Menu.o
                0x00000000080008fc                MENU_Init
 .text.MENU_Handle
                0x0000000008000938       0x54 ./App/Menu/Menu.o
                0x0000000008000938                MENU_Handle
 .text.SR_MENU_Init
                0x000000000800098c       0x30 ./App/Menu/Setting_Realtime_Menu.o
                0x000000000800098c                SR_MENU_Init
 .text.SR_MENU_Set_State
                0x00000000080009bc       0x48 ./App/Menu/Setting_Realtime_Menu.o
                0x00000000080009bc                SR_MENU_Set_State
 .text.SR_MENU_Change_Setting_State
                0x0000000008000a04       0x6c ./App/Menu/Setting_Realtime_Menu.o
                0x0000000008000a04                SR_MENU_Change_Setting_State
 .text.SR_MENU_Set_Value
                0x0000000008000a70      0x144 ./App/Menu/Setting_Realtime_Menu.o
                0x0000000008000a70                SR_MENU_Set_Value
 .text.SR_MENU_Display
                0x0000000008000bb4      0x180 ./App/Menu/Setting_Realtime_Menu.o
                0x0000000008000bb4                SR_MENU_Display
 .text.ST_MENU_Init
                0x0000000008000d34        0xc ./App/Menu/Setting_Timeline_Menu.o
                0x0000000008000d34                ST_MENU_Init
 .text.ST_MENU_Set_State
                0x0000000008000d40       0x50 ./App/Menu/Setting_Timeline_Menu.o
                0x0000000008000d40                ST_MENU_Set_State
 .text.ST_MENU_Change_Setting_State
                0x0000000008000d90       0x80 ./App/Menu/Setting_Timeline_Menu.o
                0x0000000008000d90                ST_MENU_Change_Setting_State
 .text.ST_MENU_Set_Value
                0x0000000008000e10      0x100 ./App/Menu/Setting_Timeline_Menu.o
                0x0000000008000e10                ST_MENU_Set_Value
 .text.ST_MENU_Display
                0x0000000008000f10      0x15c ./App/Menu/Setting_Timeline_Menu.o
                0x0000000008000f10                ST_MENU_Display
 .text.__create_day_string
                0x000000000800106c       0x76 ./App/Menu/Timeline_List_Menu.o
 *fill*         0x00000000080010e2        0x2 
 .text.__update_time_list
                0x00000000080010e4       0xc8 ./App/Menu/Timeline_List_Menu.o
 .text.TL_MENU_Init
                0x00000000080011ac       0x74 ./App/Menu/Timeline_List_Menu.o
                0x00000000080011ac                TL_MENU_Init
 .text.TL_MENU_Set_State
                0x0000000008001220       0x50 ./App/Menu/Timeline_List_Menu.o
                0x0000000008001220                TL_MENU_Set_State
 .text.TL_MENU_Change_Working_State
                0x0000000008001270       0x9c ./App/Menu/Timeline_List_Menu.o
                0x0000000008001270                TL_MENU_Change_Working_State
 .text.TL_MENU_Change_Pointer
                0x000000000800130c       0xbc ./App/Menu/Timeline_List_Menu.o
                0x000000000800130c                TL_MENU_Change_Pointer
 .text.TL_MENU_Config_Timeline
                0x00000000080013c8       0x6c ./App/Menu/Timeline_List_Menu.o
                0x00000000080013c8                TL_MENU_Config_Timeline
 .text.TL_MENU_Display
                0x0000000008001434      0x130 ./App/Menu/Timeline_List_Menu.o
                0x0000000008001434                TL_MENU_Display
 .text.BTN_Short_Pressing_Callback
                0x0000000008001564       0x78 ./App/Rotary_Encoder.o
                0x0000000008001564                BTN_Short_Pressing_Callback
 .text.BTN_Long_Pressing_Callback
                0x00000000080015dc       0x78 ./App/Rotary_Encoder.o
                0x00000000080015dc                BTN_Long_Pressing_Callback
 .text.ENCODER_Forward_Callback
                0x0000000008001654       0x74 ./App/Rotary_Encoder.o
                0x0000000008001654                ENCODER_Forward_Callback
 .text.ENCODER_Backward_Callback
                0x00000000080016c8       0x74 ./App/Rotary_Encoder.o
                0x00000000080016c8                ENCODER_Backward_Callback
 .text.ROTARY_ENCODER_Init
                0x000000000800173c       0x50 ./App/Rotary_Encoder.o
                0x000000000800173c                ROTARY_ENCODER_Init
 .text.ROTARY_ENCODER_Handle
                0x000000000800178c       0x1c ./App/Rotary_Encoder.o
                0x000000000800178c                ROTARY_ENCODER_Handle
 .text.TIMELINE_Init
                0x00000000080017a8       0x8c ./App/Timeline_Manage.o
                0x00000000080017a8                TIMELINE_Init
 .text.TIMELINE_Add
                0x0000000008001834       0x4c ./App/Timeline_Manage.o
                0x0000000008001834                TIMELINE_Add
 .text.TIMELINE_Delete
                0x0000000008001880       0x90 ./App/Timeline_Manage.o
                0x0000000008001880                TIMELINE_Delete
 .text.TIMELINE_Sort
                0x0000000008001910       0xcc ./App/Timeline_Manage.o
                0x0000000008001910                TIMELINE_Sort
 .text.TIMELINE_Store_To_Flash
                0x00000000080019dc       0x78 ./App/Timeline_Manage.o
                0x00000000080019dc                TIMELINE_Store_To_Flash
 .text.REALTIME_Init
                0x0000000008001a54       0x8c ./App/real_time.o
                0x0000000008001a54                REALTIME_Init
 .text.REALTIME_Handle
                0x0000000008001ae0       0x90 ./App/real_time.o
                0x0000000008001ae0                REALTIME_Handle
 .text.REALTIME_Set_New_Realtime
                0x0000000008001b70       0x70 ./App/real_time.o
                0x0000000008001b70                REALTIME_Set_New_Realtime
 .text.TEMP_AND_HUM_Handle
                0x0000000008001be0       0x9c ./Core/Src/main.o
                0x0000000008001be0                TEMP_AND_HUM_Handle
 .text.main     0x0000000008001c7c       0xa8 ./Core/Src/main.o
                0x0000000008001c7c                main
 .text.SystemClock_Config
                0x0000000008001d24       0x82 ./Core/Src/main.o
                0x0000000008001d24                SystemClock_Config
 *fill*         0x0000000008001da6        0x2 
 .text.MX_I2C1_Init
                0x0000000008001da8       0x5c ./Core/Src/main.o
 .text.MX_I2C2_Init
                0x0000000008001e04       0x5c ./Core/Src/main.o
 .text.MX_TIM2_Init
                0x0000000008001e60       0xa8 ./Core/Src/main.o
 .text.MX_TIM4_Init
                0x0000000008001f08       0x9c ./Core/Src/main.o
 .text.MX_USART1_UART_Init
                0x0000000008001fa4       0x54 ./Core/Src/main.o
 .text.MX_GPIO_Init
                0x0000000008001ff8       0xd8 ./Core/Src/main.o
 .text.Error_Handler
                0x00000000080020d0        0xa ./Core/Src/main.o
                0x00000000080020d0                Error_Handler
 *fill*         0x00000000080020da        0x2 
 .text.HAL_MspInit
                0x00000000080020dc       0x64 ./Core/Src/stm32f1xx_hal_msp.o
                0x00000000080020dc                HAL_MspInit
 .text.HAL_I2C_MspInit
                0x0000000008002140       0xd8 ./Core/Src/stm32f1xx_hal_msp.o
                0x0000000008002140                HAL_I2C_MspInit
 .text.HAL_TIM_Encoder_MspInit
                0x0000000008002218       0xe8 ./Core/Src/stm32f1xx_hal_msp.o
                0x0000000008002218                HAL_TIM_Encoder_MspInit
 .text.HAL_TIM_Base_MspInit
                0x0000000008002300       0x3c ./Core/Src/stm32f1xx_hal_msp.o
                0x0000000008002300                HAL_TIM_Base_MspInit
 .text.HAL_UART_MspInit
                0x000000000800233c       0xa8 ./Core/Src/stm32f1xx_hal_msp.o
                0x000000000800233c                HAL_UART_MspInit
 .text.NMI_Handler
                0x00000000080023e4        0x6 ./Core/Src/stm32f1xx_it.o
                0x00000000080023e4                NMI_Handler
 .text.HardFault_Handler
                0x00000000080023ea        0x6 ./Core/Src/stm32f1xx_it.o
                0x00000000080023ea                HardFault_Handler
 .text.MemManage_Handler
                0x00000000080023f0        0x6 ./Core/Src/stm32f1xx_it.o
                0x00000000080023f0                MemManage_Handler
 .text.BusFault_Handler
                0x00000000080023f6        0x6 ./Core/Src/stm32f1xx_it.o
                0x00000000080023f6                BusFault_Handler
 .text.UsageFault_Handler
                0x00000000080023fc        0x6 ./Core/Src/stm32f1xx_it.o
                0x00000000080023fc                UsageFault_Handler
 .text.SVC_Handler
                0x0000000008002402        0xc ./Core/Src/stm32f1xx_it.o
                0x0000000008002402                SVC_Handler
 .text.DebugMon_Handler
                0x000000000800240e        0xc ./Core/Src/stm32f1xx_it.o
                0x000000000800240e                DebugMon_Handler
 .text.PendSV_Handler
                0x000000000800241a        0xc ./Core/Src/stm32f1xx_it.o
                0x000000000800241a                PendSV_Handler
 .text.SysTick_Handler
                0x0000000008002426        0xc ./Core/Src/stm32f1xx_it.o
                0x0000000008002426                SysTick_Handler
 *fill*         0x0000000008002432        0x2 
 .text.TIM2_IRQHandler
                0x0000000008002434       0x14 ./Core/Src/stm32f1xx_it.o
                0x0000000008002434                TIM2_IRQHandler
 .text.USART1_IRQHandler
                0x0000000008002448       0x14 ./Core/Src/stm32f1xx_it.o
                0x0000000008002448                USART1_IRQHandler
 .text._sbrk    0x000000000800245c       0x6c ./Core/Src/sysmem.o
                0x000000000800245c                _sbrk
 .text.SystemInit
                0x00000000080024c8        0xc ./Core/Src/system_stm32f1xx.o
                0x00000000080024c8                SystemInit
 .text.Reset_Handler
                0x00000000080024d4       0x48 ./Core/Startup/startup_stm32f103c8tx.o
                0x00000000080024d4                Reset_Handler
 .text.Default_Handler
                0x000000000800251c        0x2 ./Core/Startup/startup_stm32f103c8tx.o
                0x000000000800251c                RTC_Alarm_IRQHandler
                0x000000000800251c                EXTI2_IRQHandler
                0x000000000800251c                TIM1_CC_IRQHandler
                0x000000000800251c                PVD_IRQHandler
                0x000000000800251c                EXTI3_IRQHandler
                0x000000000800251c                EXTI0_IRQHandler
                0x000000000800251c                I2C2_EV_IRQHandler
                0x000000000800251c                ADC1_2_IRQHandler
                0x000000000800251c                SPI1_IRQHandler
                0x000000000800251c                TAMPER_IRQHandler
                0x000000000800251c                DMA1_Channel4_IRQHandler
                0x000000000800251c                USART3_IRQHandler
                0x000000000800251c                RTC_IRQHandler
                0x000000000800251c                DMA1_Channel7_IRQHandler
                0x000000000800251c                CAN1_RX1_IRQHandler
                0x000000000800251c                TIM4_IRQHandler
                0x000000000800251c                I2C1_EV_IRQHandler
                0x000000000800251c                DMA1_Channel6_IRQHandler
                0x000000000800251c                TIM3_IRQHandler
                0x000000000800251c                RCC_IRQHandler
                0x000000000800251c                TIM1_TRG_COM_IRQHandler
                0x000000000800251c                DMA1_Channel1_IRQHandler
                0x000000000800251c                Default_Handler
                0x000000000800251c                EXTI15_10_IRQHandler
                0x000000000800251c                EXTI9_5_IRQHandler
                0x000000000800251c                SPI2_IRQHandler
                0x000000000800251c                DMA1_Channel5_IRQHandler
                0x000000000800251c                EXTI4_IRQHandler
                0x000000000800251c                USB_LP_CAN1_RX0_IRQHandler
                0x000000000800251c                USB_HP_CAN1_TX_IRQHandler
                0x000000000800251c                DMA1_Channel3_IRQHandler
                0x000000000800251c                TIM1_UP_IRQHandler
                0x000000000800251c                WWDG_IRQHandler
                0x000000000800251c                TIM1_BRK_IRQHandler
                0x000000000800251c                EXTI1_IRQHandler
                0x000000000800251c                USART2_IRQHandler
                0x000000000800251c                I2C2_ER_IRQHandler
                0x000000000800251c                DMA1_Channel2_IRQHandler
                0x000000000800251c                CAN1_SCE_IRQHandler
                0x000000000800251c                FLASH_IRQHandler
                0x000000000800251c                I2C1_ER_IRQHandler
                0x000000000800251c                USBWakeUp_IRQHandler
 *fill*         0x000000000800251e        0x2 
 .text.HAL_Init
                0x0000000008002520       0x2c ./Drivers/STM32F1xx_HAL_Driver/Src/stm32f1xx_hal.o
                0x0000000008002520                HAL_Init
 .text.HAL_InitTick
                0x000000000800254c       0x60 ./Drivers/STM32F1xx_HAL_Driver/Src/stm32f1xx_hal.o
                0x000000000800254c                HAL_InitTick
 .text.HAL_IncTick
                0x00000000080025ac       0x24 ./Drivers/STM32F1xx_HAL_Driver/Src/stm32f1xx_hal.o
                0x00000000080025ac                HAL_IncTick
 .text.HAL_GetTick
                0x00000000080025d0       0x14 ./Drivers/STM32F1xx_HAL_Driver/Src/stm32f1xx_hal.o
                0x00000000080025d0                HAL_GetTick
 .text.HAL_Delay
                0x00000000080025e4       0x48 ./Drivers/STM32F1xx_HAL_Driver/Src/stm32f1xx_hal.o
                0x00000000080025e4                HAL_Delay
 .text.__NVIC_SetPriorityGrouping
                0x000000000800262c       0x48 ./Drivers/STM32F1xx_HAL_Driver/Src/stm32f1xx_hal_cortex.o
 .text.__NVIC_GetPriorityGrouping
                0x0000000008002674       0x1c ./Drivers/STM32F1xx_HAL_Driver/Src/stm32f1xx_hal_cortex.o
 .text.__NVIC_EnableIRQ
                0x0000000008002690       0x38 ./Drivers/STM32F1xx_HAL_Driver/Src/stm32f1xx_hal_cortex.o
 .text.__NVIC_SetPriority
                0x00000000080026c8       0x54 ./Drivers/STM32F1xx_HAL_Driver/Src/stm32f1xx_hal_cortex.o
 .text.NVIC_EncodePriority
                0x000000000800271c       0x64 ./Drivers/STM32F1xx_HAL_Driver/Src/stm32f1xx_hal_cortex.o
 .text.SysTick_Config
                0x0000000008002780       0x44 ./Drivers/STM32F1xx_HAL_Driver/Src/stm32f1xx_hal_cortex.o
 .text.HAL_NVIC_SetPriorityGrouping
                0x00000000080027c4       0x16 ./Drivers/STM32F1xx_HAL_Driver/Src/stm32f1xx_hal_cortex.o
                0x00000000080027c4                HAL_NVIC_SetPriorityGrouping
 .text.HAL_NVIC_SetPriority
                0x00000000080027da       0x38 ./Drivers/STM32F1xx_HAL_Driver/Src/stm32f1xx_hal_cortex.o
                0x00000000080027da                HAL_NVIC_SetPriority
 .text.HAL_NVIC_EnableIRQ
                0x0000000008002812       0x1c ./Drivers/STM32F1xx_HAL_Driver/Src/stm32f1xx_hal_cortex.o
                0x0000000008002812                HAL_NVIC_EnableIRQ
 .text.HAL_SYSTICK_Config
                0x000000000800282e       0x18 ./Drivers/STM32F1xx_HAL_Driver/Src/stm32f1xx_hal_cortex.o
                0x000000000800282e                HAL_SYSTICK_Config
 .text.HAL_DMA_Abort
                0x0000000008002846       0x74 ./Drivers/STM32F1xx_HAL_Driver/Src/stm32f1xx_hal_dma.o
                0x0000000008002846                HAL_DMA_Abort
 *fill*         0x00000000080028ba        0x2 
 .text.HAL_DMA_Abort_IT
                0x00000000080028bc       0xec ./Drivers/STM32F1xx_HAL_Driver/Src/stm32f1xx_hal_dma.o
                0x00000000080028bc                HAL_DMA_Abort_IT
 .text.HAL_FLASH_Program
                0x00000000080029a8       0xe0 ./Drivers/STM32F1xx_HAL_Driver/Src/stm32f1xx_hal_flash.o
                0x00000000080029a8                HAL_FLASH_Program
 .text.HAL_FLASH_Unlock
                0x0000000008002a88       0x4c ./Drivers/STM32F1xx_HAL_Driver/Src/stm32f1xx_hal_flash.o
                0x0000000008002a88                HAL_FLASH_Unlock
 .text.HAL_FLASH_Lock
                0x0000000008002ad4       0x20 ./Drivers/STM32F1xx_HAL_Driver/Src/stm32f1xx_hal_flash.o
                0x0000000008002ad4                HAL_FLASH_Lock
 .text.FLASH_Program_HalfWord
                0x0000000008002af4       0x38 ./Drivers/STM32F1xx_HAL_Driver/Src/stm32f1xx_hal_flash.o
 .text.FLASH_WaitForLastOperation
                0x0000000008002b2c       0x8c ./Drivers/STM32F1xx_HAL_Driver/Src/stm32f1xx_hal_flash.o
                0x0000000008002b2c                FLASH_WaitForLastOperation
 .text.FLASH_SetErrorCode
                0x0000000008002bb8       0xa0 ./Drivers/STM32F1xx_HAL_Driver/Src/stm32f1xx_hal_flash.o
 .text.HAL_FLASHEx_Erase
                0x0000000008002c58       0xd8 ./Drivers/STM32F1xx_HAL_Driver/Src/stm32f1xx_hal_flash_ex.o
                0x0000000008002c58                HAL_FLASHEx_Erase
 .text.FLASH_MassErase
                0x0000000008002d30       0x38 ./Drivers/STM32F1xx_HAL_Driver/Src/stm32f1xx_hal_flash_ex.o
 .text.FLASH_PageErase
                0x0000000008002d68       0x40 ./Drivers/STM32F1xx_HAL_Driver/Src/stm32f1xx_hal_flash_ex.o
                0x0000000008002d68                FLASH_PageErase
 .text.HAL_GPIO_Init
                0x0000000008002da8      0x308 ./Drivers/STM32F1xx_HAL_Driver/Src/stm32f1xx_hal_gpio.o
                0x0000000008002da8                HAL_GPIO_Init
 .text.HAL_GPIO_ReadPin
                0x00000000080030b0       0x2e ./Drivers/STM32F1xx_HAL_Driver/Src/stm32f1xx_hal_gpio.o
                0x00000000080030b0                HAL_GPIO_ReadPin
 .text.HAL_GPIO_WritePin
                0x00000000080030de       0x30 ./Drivers/STM32F1xx_HAL_Driver/Src/stm32f1xx_hal_gpio.o
                0x00000000080030de                HAL_GPIO_WritePin
 *fill*         0x000000000800310e        0x2 
 .text.HAL_I2C_Init
                0x0000000008003110      0x288 ./Drivers/STM32F1xx_HAL_Driver/Src/stm32f1xx_hal_i2c.o
                0x0000000008003110                HAL_I2C_Init
 .text.HAL_I2C_Master_Transmit
                0x0000000008003398      0x1fc ./Drivers/STM32F1xx_HAL_Driver/Src/stm32f1xx_hal_i2c.o
                0x0000000008003398                HAL_I2C_Master_Transmit
 .text.HAL_I2C_Mem_Write
                0x0000000008003594      0x1f4 ./Drivers/STM32F1xx_HAL_Driver/Src/stm32f1xx_hal_i2c.o
                0x0000000008003594                HAL_I2C_Mem_Write
 .text.HAL_I2C_Mem_Read
                0x0000000008003788      0x4d0 ./Drivers/STM32F1xx_HAL_Driver/Src/stm32f1xx_hal_i2c.o
                0x0000000008003788                HAL_I2C_Mem_Read
 .text.I2C_MasterRequestWrite
                0x0000000008003c58      0x104 ./Drivers/STM32F1xx_HAL_Driver/Src/stm32f1xx_hal_i2c.o
 .text.I2C_RequestMemoryWrite
                0x0000000008003d5c      0x12c ./Drivers/STM32F1xx_HAL_Driver/Src/stm32f1xx_hal_i2c.o
 .text.I2C_RequestMemoryRead
                0x0000000008003e88      0x1d0 ./Drivers/STM32F1xx_HAL_Driver/Src/stm32f1xx_hal_i2c.o
 .text.I2C_WaitOnFlagUntilTimeout
                0x0000000008004058       0xae ./Drivers/STM32F1xx_HAL_Driver/Src/stm32f1xx_hal_i2c.o
 .text.I2C_WaitOnMasterAddressFlagUntilTimeout
                0x0000000008004106       0xfe ./Drivers/STM32F1xx_HAL_Driver/Src/stm32f1xx_hal_i2c.o
 .text.I2C_WaitOnTXEFlagUntilTimeout
                0x0000000008004204       0x82 ./Drivers/STM32F1xx_HAL_Driver/Src/stm32f1xx_hal_i2c.o
 .text.I2C_WaitOnBTFFlagUntilTimeout
                0x0000000008004286       0x82 ./Drivers/STM32F1xx_HAL_Driver/Src/stm32f1xx_hal_i2c.o
 .text.I2C_WaitOnRXNEFlagUntilTimeout
                0x0000000008004308       0xac ./Drivers/STM32F1xx_HAL_Driver/Src/stm32f1xx_hal_i2c.o
 .text.I2C_IsAcknowledgeFailed
                0x00000000080043b4       0x5c ./Drivers/STM32F1xx_HAL_Driver/Src/stm32f1xx_hal_i2c.o
 .text.HAL_RCC_OscConfig
                0x0000000008004410      0x504 ./Drivers/STM32F1xx_HAL_Driver/Src/stm32f1xx_hal_rcc.o
                0x0000000008004410                HAL_RCC_OscConfig
 .text.HAL_RCC_ClockConfig
                0x0000000008004914      0x1d4 ./Drivers/STM32F1xx_HAL_Driver/Src/stm32f1xx_hal_rcc.o
                0x0000000008004914                HAL_RCC_ClockConfig
 .text.HAL_RCC_GetSysClockFreq
                0x0000000008004ae8       0xbc ./Drivers/STM32F1xx_HAL_Driver/Src/stm32f1xx_hal_rcc.o
                0x0000000008004ae8                HAL_RCC_GetSysClockFreq
 .text.HAL_RCC_GetHCLKFreq
                0x0000000008004ba4       0x14 ./Drivers/STM32F1xx_HAL_Driver/Src/stm32f1xx_hal_rcc.o
                0x0000000008004ba4                HAL_RCC_GetHCLKFreq
 .text.HAL_RCC_GetPCLK1Freq
                0x0000000008004bb8       0x28 ./Drivers/STM32F1xx_HAL_Driver/Src/stm32f1xx_hal_rcc.o
                0x0000000008004bb8                HAL_RCC_GetPCLK1Freq
 .text.HAL_RCC_GetPCLK2Freq
                0x0000000008004be0       0x28 ./Drivers/STM32F1xx_HAL_Driver/Src/stm32f1xx_hal_rcc.o
                0x0000000008004be0                HAL_RCC_GetPCLK2Freq
 .text.RCC_Delay
                0x0000000008004c08       0x3c ./Drivers/STM32F1xx_HAL_Driver/Src/stm32f1xx_hal_rcc.o
 .text.HAL_TIM_Base_Init
                0x0000000008004c44       0x9e ./Drivers/STM32F1xx_HAL_Driver/Src/stm32f1xx_hal_tim.o
                0x0000000008004c44                HAL_TIM_Base_Init
 *fill*         0x0000000008004ce2        0x2 
 .text.HAL_TIM_Base_Start
                0x0000000008004ce4       0x94 ./Drivers/STM32F1xx_HAL_Driver/Src/stm32f1xx_hal_tim.o
                0x0000000008004ce4                HAL_TIM_Base_Start
 .text.HAL_TIM_Base_Stop
                0x0000000008004d78       0x4c ./Drivers/STM32F1xx_HAL_Driver/Src/stm32f1xx_hal_tim.o
                0x0000000008004d78                HAL_TIM_Base_Stop
 .text.HAL_TIM_Encoder_Init
                0x0000000008004dc4      0x144 ./Drivers/STM32F1xx_HAL_Driver/Src/stm32f1xx_hal_tim.o
                0x0000000008004dc4                HAL_TIM_Encoder_Init
 .text.HAL_TIM_Encoder_Start_IT
                0x0000000008004f08      0x15c ./Drivers/STM32F1xx_HAL_Driver/Src/stm32f1xx_hal_tim.o
                0x0000000008004f08                HAL_TIM_Encoder_Start_IT
 .text.HAL_TIM_IRQHandler
                0x0000000008005064      0x210 ./Drivers/STM32F1xx_HAL_Driver/Src/stm32f1xx_hal_tim.o
                0x0000000008005064                HAL_TIM_IRQHandler
 .text.HAL_TIM_ConfigClockSource
                0x0000000008005274      0x188 ./Drivers/STM32F1xx_HAL_Driver/Src/stm32f1xx_hal_tim.o
                0x0000000008005274                HAL_TIM_ConfigClockSource
 .text.HAL_TIM_PeriodElapsedCallback
                0x00000000080053fc       0x12 ./Drivers/STM32F1xx_HAL_Driver/Src/stm32f1xx_hal_tim.o
                0x00000000080053fc                HAL_TIM_PeriodElapsedCallback
 .text.HAL_TIM_OC_DelayElapsedCallback
                0x000000000800540e       0x12 ./Drivers/STM32F1xx_HAL_Driver/Src/stm32f1xx_hal_tim.o
                0x000000000800540e                HAL_TIM_OC_DelayElapsedCallback
 .text.HAL_TIM_PWM_PulseFinishedCallback
                0x0000000008005420       0x12 ./Drivers/STM32F1xx_HAL_Driver/Src/stm32f1xx_hal_tim.o
                0x0000000008005420                HAL_TIM_PWM_PulseFinishedCallback
 .text.HAL_TIM_TriggerCallback
                0x0000000008005432       0x12 ./Drivers/STM32F1xx_HAL_Driver/Src/stm32f1xx_hal_tim.o
                0x0000000008005432                HAL_TIM_TriggerCallback
 .text.TIM_Base_SetConfig
                0x0000000008005444       0xc4 ./Drivers/STM32F1xx_HAL_Driver/Src/stm32f1xx_hal_tim.o
                0x0000000008005444                TIM_Base_SetConfig
 .text.TIM_TI1_ConfigInputStage
                0x0000000008005508       0x5c ./Drivers/STM32F1xx_HAL_Driver/Src/stm32f1xx_hal_tim.o
 .text.TIM_TI2_ConfigInputStage
                0x0000000008005564       0x5e ./Drivers/STM32F1xx_HAL_Driver/Src/stm32f1xx_hal_tim.o
 .text.TIM_ITRx_SetConfig
                0x00000000080055c2       0x34 ./Drivers/STM32F1xx_HAL_Driver/Src/stm32f1xx_hal_tim.o
 .text.TIM_ETR_SetConfig
                0x00000000080055f6       0x3e ./Drivers/STM32F1xx_HAL_Driver/Src/stm32f1xx_hal_tim.o
                0x00000000080055f6                TIM_ETR_SetConfig
 .text.TIM_CCxChannelCmd
                0x0000000008005634       0x48 ./Drivers/STM32F1xx_HAL_Driver/Src/stm32f1xx_hal_tim.o
                0x0000000008005634                TIM_CCxChannelCmd
 .text.HAL_TIMEx_MasterConfigSynchronization
                0x000000000800567c       0xbc ./Drivers/STM32F1xx_HAL_Driver/Src/stm32f1xx_hal_tim_ex.o
                0x000000000800567c                HAL_TIMEx_MasterConfigSynchronization
 .text.HAL_TIMEx_CommutCallback
                0x0000000008005738       0x12 ./Drivers/STM32F1xx_HAL_Driver/Src/stm32f1xx_hal_tim_ex.o
                0x0000000008005738                HAL_TIMEx_CommutCallback
 .text.HAL_TIMEx_BreakCallback
                0x000000000800574a       0x12 ./Drivers/STM32F1xx_HAL_Driver/Src/stm32f1xx_hal_tim_ex.o
                0x000000000800574a                HAL_TIMEx_BreakCallback
 .text.HAL_UART_Init
                0x000000000800575c       0x9a ./Drivers/STM32F1xx_HAL_Driver/Src/stm32f1xx_hal_uart.o
                0x000000000800575c                HAL_UART_Init
 *fill*         0x00000000080057f6        0x2 
 .text.HAL_UART_IRQHandler
                0x00000000080057f8      0x354 ./Drivers/STM32F1xx_HAL_Driver/Src/stm32f1xx_hal_uart.o
                0x00000000080057f8                HAL_UART_IRQHandler
 .text.HAL_UART_TxCpltCallback
                0x0000000008005b4c       0x12 ./Drivers/STM32F1xx_HAL_Driver/Src/stm32f1xx_hal_uart.o
                0x0000000008005b4c                HAL_UART_TxCpltCallback
 .text.HAL_UART_RxCpltCallback
                0x0000000008005b5e       0x12 ./Drivers/STM32F1xx_HAL_Driver/Src/stm32f1xx_hal_uart.o
                0x0000000008005b5e                HAL_UART_RxCpltCallback
 .text.HAL_UART_ErrorCallback
                0x0000000008005b70       0x12 ./Drivers/STM32F1xx_HAL_Driver/Src/stm32f1xx_hal_uart.o
                0x0000000008005b70                HAL_UART_ErrorCallback
 .text.HAL_UARTEx_RxEventCallback
                0x0000000008005b82       0x16 ./Drivers/STM32F1xx_HAL_Driver/Src/stm32f1xx_hal_uart.o
                0x0000000008005b82                HAL_UARTEx_RxEventCallback
 .text.UART_EndRxTransfer
                0x0000000008005b98       0x58 ./Drivers/STM32F1xx_HAL_Driver/Src/stm32f1xx_hal_uart.o
 .text.UART_DMAAbortOnError
                0x0000000008005bf0       0x28 ./Drivers/STM32F1xx_HAL_Driver/Src/stm32f1xx_hal_uart.o
 .text.UART_Transmit_IT
                0x0000000008005c18       0x9e ./Drivers/STM32F1xx_HAL_Driver/Src/stm32f1xx_hal_uart.o
 .text.UART_EndTransmit_IT
                0x0000000008005cb6       0x30 ./Drivers/STM32F1xx_HAL_Driver/Src/stm32f1xx_hal_uart.o
 .text.UART_Receive_IT
                0x0000000008005ce6      0x152 ./Drivers/STM32F1xx_HAL_Driver/Src/stm32f1xx_hal_uart.o
 .text.UART_SetConfig
                0x0000000008005e38      0x11c ./Drivers/STM32F1xx_HAL_Driver/Src/stm32f1xx_hal_uart.o
 .text.DHT_Set_Pin_Output
                0x0000000008005f54       0x3c ./Libraries/DHT.o
 .text.DHT_Set_Pin_Input
                0x0000000008005f90       0x3c ./Libraries/DHT.o
 .text.DHT_Start
                0x0000000008005fcc       0x4e ./Libraries/DHT.o
 .text.DHT_Check_Response
                0x000000000800601a       0x88 ./Libraries/DHT.o
 .text.DHT_Read
                0x00000000080060a2      0x10c ./Libraries/DHT.o
 .text.DHT_Init
                0x00000000080061ae       0x40 ./Libraries/DHT.o
                0x00000000080061ae                DHT_Init
 .text.DHT_Read_Value
                0x00000000080061ee       0xb8 ./Libraries/DHT.o
                0x00000000080061ee                DHT_Read_Value
 .text.BCD_To_DEC
                0x00000000080062a6       0x30 ./Libraries/DS3231.o
 *fill*         0x00000000080062d6        0x2 
 .text.DEC_To_BCD
                0x00000000080062d8       0x48 ./Libraries/DS3231.o
 .text.DS3231_Init
                0x0000000008006320       0x1a ./Libraries/DS3231.o
                0x0000000008006320                DS3231_Init
 .text.DS3231_Set_Time
                0x000000000800633a       0x76 ./Libraries/DS3231.o
                0x000000000800633a                DS3231_Set_Time
 .text.DS3231_Get_Time
                0x00000000080063b0       0x7a ./Libraries/DS3231.o
                0x00000000080063b0                DS3231_Get_Time
 .text.DS3231_Set_Date
                0x000000000800642a       0x64 ./Libraries/DS3231.o
                0x000000000800642a                DS3231_Set_Date
 .text.DS3231_Get_Date
                0x000000000800648e       0x6a ./Libraries/DS3231.o
                0x000000000800648e                DS3231_Get_Date
 .text.DELAY_US_Init
                0x00000000080064f8       0x1c ./Libraries/Delay_us.o
                0x00000000080064f8                DELAY_US_Init
 .text.DELAY_US_Run
                0x0000000008006514       0x44 ./Libraries/Delay_us.o
                0x0000000008006514                DELAY_US_Run
 .text.HAL_TIM_IC_CaptureCallback
                0x0000000008006558       0x28 ./Libraries/Encoder.o
                0x0000000008006558                HAL_TIM_IC_CaptureCallback
 .text.ENCODER_Init
                0x0000000008006580       0x26 ./Libraries/Encoder.o
                0x0000000008006580                ENCODER_Init
 *fill*         0x00000000080065a6        0x2 
 .text.ENCODER_Set_Callback_Function
                0x00000000080065a8       0x28 ./Libraries/Encoder.o
                0x00000000080065a8                ENCODER_Set_Callback_Function
 .text.ENCODER_IT_Handle
                0x00000000080065d0       0x2e ./Libraries/Encoder.o
                0x00000000080065d0                ENCODER_IT_Handle
 *fill*         0x00000000080065fe        0x2 
 .text.ENCODER_Handle
                0x0000000008006600       0x6c ./Libraries/Encoder.o
                0x0000000008006600                ENCODER_Handle
 .text.LCD_Init
                0x000000000800666c       0xd8 ./Libraries/LCD_I2C.o
                0x000000000800666c                LCD_Init
 .text.LCD_Write
                0x0000000008006744       0x7c ./Libraries/LCD_I2C.o
                0x0000000008006744                LCD_Write
 .text.LCD_Clear
                0x00000000080067c0       0x28 ./Libraries/LCD_I2C.o
                0x00000000080067c0                LCD_Clear
 .text.LCD_Set_Cursor
                0x00000000080067e8       0x54 ./Libraries/LCD_I2C.o
                0x00000000080067e8                LCD_Set_Cursor
 .text.LCD_Create_Char
                0x000000000800683c       0x58 ./Libraries/LCD_I2C.o
                0x000000000800683c                LCD_Create_Char
 .text.LCD_Cursor_Blink
                0x0000000008006894       0x30 ./Libraries/LCD_I2C.o
                0x0000000008006894                LCD_Cursor_Blink
 .text.LCD_Cursor_No_Blink
                0x00000000080068c4       0x30 ./Libraries/LCD_I2C.o
                0x00000000080068c4                LCD_Cursor_No_Blink
 .text.LCD_Send_Command
                0x00000000080068f4       0x76 ./Libraries/LCD_I2C.o
                0x00000000080068f4                LCD_Send_Command
 .text.LCD_Send_Data
                0x000000000800696a       0x82 ./Libraries/LCD_I2C.o
                0x000000000800696a                LCD_Send_Data
 .text.BUTTON_Handle
                0x00000000080069ec      0x120 ./Libraries/button.o
                0x00000000080069ec                BUTTON_Handle
 .text.BUTTON_Init
                0x0000000008006b0c       0x42 ./Libraries/button.o
                0x0000000008006b0c                BUTTON_Init
 *fill*         0x0000000008006b4e        0x2 
 .text.BUTTON_Set_Callback_Function
                0x0000000008006b50       0x40 ./Libraries/button.o
                0x0000000008006b50                BUTTON_Set_Callback_Function
 .text.FLASH_Erase
                0x0000000008006b90       0x3e ./Libraries/flash.o
                0x0000000008006b90                FLASH_Erase
 .text.FLASH_Write
                0x0000000008006bce       0x80 ./Libraries/flash.o
                0x0000000008006bce                FLASH_Write
 .text.FLASH_Read
                0x0000000008006c4e       0x56 ./Libraries/flash.o
                0x0000000008006c4e                FLASH_Read
 .text.__errno  0x0000000008006ca4        0xc c:/st/stm32cubeide_1.10.1/stm32cubeide/plugins/com.st.stm32cube.ide.mcu.externaltools.gnu-tools-for-stm32.10.3-2021.10.win32_1.0.0.202111181127/tools/bin/../lib/gcc/arm-none-eabi/10.3.1/../../../../arm-none-eabi/lib/thumb/v7-m/nofp\libc_nano.a(lib_a-errno.o)
                0x0000000008006ca4                __errno
 .text.__libc_init_array
                0x0000000008006cb0       0x48 c:/st/stm32cubeide_1.10.1/stm32cubeide/plugins/com.st.stm32cube.ide.mcu.externaltools.gnu-tools-for-stm32.10.3-2021.10.win32_1.0.0.202111181127/tools/bin/../lib/gcc/arm-none-eabi/10.3.1/../../../../arm-none-eabi/lib/thumb/v7-m/nofp\libc_nano.a(lib_a-init.o)
                0x0000000008006cb0                __libc_init_array
 .text.malloc   0x0000000008006cf8       0x10 c:/st/stm32cubeide_1.10.1/stm32cubeide/plugins/com.st.stm32cube.ide.mcu.externaltools.gnu-tools-for-stm32.10.3-2021.10.win32_1.0.0.202111181127/tools/bin/../lib/gcc/arm-none-eabi/10.3.1/../../../../arm-none-eabi/lib/thumb/v7-m/nofp\libc_nano.a(lib_a-malloc.o)
                0x0000000008006cf8                malloc
 .text.free     0x0000000008006d08       0x10 c:/st/stm32cubeide_1.10.1/stm32cubeide/plugins/com.st.stm32cube.ide.mcu.externaltools.gnu-tools-for-stm32.10.3-2021.10.win32_1.0.0.202111181127/tools/bin/../lib/gcc/arm-none-eabi/10.3.1/../../../../arm-none-eabi/lib/thumb/v7-m/nofp\libc_nano.a(lib_a-malloc.o)
                0x0000000008006d08                free
 .text.memset   0x0000000008006d18       0x10 c:/st/stm32cubeide_1.10.1/stm32cubeide/plugins/com.st.stm32cube.ide.mcu.externaltools.gnu-tools-for-stm32.10.3-2021.10.win32_1.0.0.202111181127/tools/bin/../lib/gcc/arm-none-eabi/10.3.1/../../../../arm-none-eabi/lib/thumb/v7-m/nofp\libc_nano.a(lib_a-memset.o)
                0x0000000008006d18                memset
 .text._free_r  0x0000000008006d28       0x90 c:/st/stm32cubeide_1.10.1/stm32cubeide/plugins/com.st.stm32cube.ide.mcu.externaltools.gnu-tools-for-stm32.10.3-2021.10.win32_1.0.0.202111181127/tools/bin/../lib/gcc/arm-none-eabi/10.3.1/../../../../arm-none-eabi/lib/thumb/v7-m/nofp\libc_nano.a(lib_a-nano-freer.o)
                0x0000000008006d28                _free_r
 .text.sbrk_aligned
                0x0000000008006db8       0x40 c:/st/stm32cubeide_1.10.1/stm32cubeide/plugins/com.st.stm32cube.ide.mcu.externaltools.gnu-tools-for-stm32.10.3-2021.10.win32_1.0.0.202111181127/tools/bin/../lib/gcc/arm-none-eabi/10.3.1/../../../../arm-none-eabi/lib/thumb/v7-m/nofp\libc_nano.a(lib_a-nano-mallocr.o)
 .text._malloc_r
                0x0000000008006df8       0xe8 c:/st/stm32cubeide_1.10.1/stm32cubeide/plugins/com.st.stm32cube.ide.mcu.externaltools.gnu-tools-for-stm32.10.3-2021.10.win32_1.0.0.202111181127/tools/bin/../lib/gcc/arm-none-eabi/10.3.1/../../../../arm-none-eabi/lib/thumb/v7-m/nofp\libc_nano.a(lib_a-nano-mallocr.o)
                0x0000000008006df8                _malloc_r
 .text._sbrk_r  0x0000000008006ee0       0x20 c:/st/stm32cubeide_1.10.1/stm32cubeide/plugins/com.st.stm32cube.ide.mcu.externaltools.gnu-tools-for-stm32.10.3-2021.10.win32_1.0.0.202111181127/tools/bin/../lib/gcc/arm-none-eabi/10.3.1/../../../../arm-none-eabi/lib/thumb/v7-m/nofp\libc_nano.a(lib_a-sbrkr.o)
                0x0000000008006ee0                _sbrk_r
 .text.sprintf  0x0000000008006f00       0x40 c:/st/stm32cubeide_1.10.1/stm32cubeide/plugins/com.st.stm32cube.ide.mcu.externaltools.gnu-tools-for-stm32.10.3-2021.10.win32_1.0.0.202111181127/tools/bin/../lib/gcc/arm-none-eabi/10.3.1/../../../../arm-none-eabi/lib/thumb/v7-m/nofp\libc_nano.a(lib_a-sprintf.o)
                0x0000000008006f00                siprintf
                0x0000000008006f00                sprintf
 .text.strcpy   0x0000000008006f40       0x10 c:/st/stm32cubeide_1.10.1/stm32cubeide/plugins/com.st.stm32cube.ide.mcu.externaltools.gnu-tools-for-stm32.10.3-2021.10.win32_1.0.0.202111181127/tools/bin/../lib/gcc/arm-none-eabi/10.3.1/../../../../arm-none-eabi/lib/thumb/v7-m/nofp\libc_nano.a(lib_a-strcpy.o)
                0x0000000008006f40                strcpy
 .text._vsprintf_r
                0x0000000008006f50       0x2c c:/st/stm32cubeide_1.10.1/stm32cubeide/plugins/com.st.stm32cube.ide.mcu.externaltools.gnu-tools-for-stm32.10.3-2021.10.win32_1.0.0.202111181127/tools/bin/../lib/gcc/arm-none-eabi/10.3.1/../../../../arm-none-eabi/lib/thumb/v7-m/nofp\libc_nano.a(lib_a-vsprintf.o)
                0x0000000008006f50                _vsprintf_r
                0x0000000008006f50                _vsiprintf_r
 .text.vsprintf
                0x0000000008006f7c       0x14 c:/st/stm32cubeide_1.10.1/stm32cubeide/plugins/com.st.stm32cube.ide.mcu.externaltools.gnu-tools-for-stm32.10.3-2021.10.win32_1.0.0.202111181127/tools/bin/../lib/gcc/arm-none-eabi/10.3.1/../../../../arm-none-eabi/lib/thumb/v7-m/nofp\libc_nano.a(lib_a-vsprintf.o)
                0x0000000008006f7c                vsiprintf
                0x0000000008006f7c                vsprintf
 .text.__malloc_lock
                0x0000000008006f90        0xc c:/st/stm32cubeide_1.10.1/stm32cubeide/plugins/com.st.stm32cube.ide.mcu.externaltools.gnu-tools-for-stm32.10.3-2021.10.win32_1.0.0.202111181127/tools/bin/../lib/gcc/arm-none-eabi/10.3.1/../../../../arm-none-eabi/lib/thumb/v7-m/nofp\libc_nano.a(lib_a-mlock.o)
                0x0000000008006f90                __malloc_lock
 .text.__malloc_unlock
                0x0000000008006f9c        0xc c:/st/stm32cubeide_1.10.1/stm32cubeide/plugins/com.st.stm32cube.ide.mcu.externaltools.gnu-tools-for-stm32.10.3-2021.10.win32_1.0.0.202111181127/tools/bin/../lib/gcc/arm-none-eabi/10.3.1/../../../../arm-none-eabi/lib/thumb/v7-m/nofp\libc_nano.a(lib_a-mlock.o)
                0x0000000008006f9c                __malloc_unlock
 .text.__ssputs_r
                0x0000000008006fa8       0xb6 c:/st/stm32cubeide_1.10.1/stm32cubeide/plugins/com.st.stm32cube.ide.mcu.externaltools.gnu-tools-for-stm32.10.3-2021.10.win32_1.0.0.202111181127/tools/bin/../lib/gcc/arm-none-eabi/10.3.1/../../../../arm-none-eabi/lib/thumb/v7-m/nofp\libc_nano.a(lib_a-nano-svfprintf.o)
                0x0000000008006fa8                __ssputs_r
 *fill*         0x000000000800705e        0x2 
 .text._svfprintf_r
                0x0000000008007060      0x200 c:/st/stm32cubeide_1.10.1/stm32cubeide/plugins/com.st.stm32cube.ide.mcu.externaltools.gnu-tools-for-stm32.10.3-2021.10.win32_1.0.0.202111181127/tools/bin/../lib/gcc/arm-none-eabi/10.3.1/../../../../arm-none-eabi/lib/thumb/v7-m/nofp\libc_nano.a(lib_a-nano-svfprintf.o)
                0x0000000008007060                _svfiprintf_r
                0x0000000008007060                _svfprintf_r
 .text._printf_common
                0x0000000008007260       0xde c:/st/stm32cubeide_1.10.1/stm32cubeide/plugins/com.st.stm32cube.ide.mcu.externaltools.gnu-tools-for-stm32.10.3-2021.10.win32_1.0.0.202111181127/tools/bin/../lib/gcc/arm-none-eabi/10.3.1/../../../../arm-none-eabi/lib/thumb/v7-m/nofp\libc_nano.a(lib_a-nano-vfprintf_i.o)
                0x0000000008007260                _printf_common
 *fill*         0x000000000800733e        0x2 
 .text._printf_i
                0x0000000008007340      0x24c c:/st/stm32cubeide_1.10.1/stm32cubeide/plugins/com.st.stm32cube.ide.mcu.externaltools.gnu-tools-for-stm32.10.3-2021.10.win32_1.0.0.202111181127/tools/bin/../lib/gcc/arm-none-eabi/10.3.1/../../../../arm-none-eabi/lib/thumb/v7-m/nofp\libc_nano.a(lib_a-nano-vfprintf_i.o)
                0x0000000008007340                _printf_i
 .text.__retarget_lock_acquire_recursive
                0x000000000800758c        0x2 c:/st/stm32cubeide_1.10.1/stm32cubeide/plugins/com.st.stm32cube.ide.mcu.externaltools.gnu-tools-for-stm32.10.3-2021.10.win32_1.0.0.202111181127/tools/bin/../lib/gcc/arm-none-eabi/10.3.1/../../../../arm-none-eabi/lib/thumb/v7-m/nofp\libc_nano.a(lib_a-lock.o)
                0x000000000800758c                __retarget_lock_acquire_recursive
 .text.__retarget_lock_release_recursive
                0x000000000800758e        0x2 c:/st/stm32cubeide_1.10.1/stm32cubeide/plugins/com.st.stm32cube.ide.mcu.externaltools.gnu-tools-for-stm32.10.3-2021.10.win32_1.0.0.202111181127/tools/bin/../lib/gcc/arm-none-eabi/10.3.1/../../../../arm-none-eabi/lib/thumb/v7-m/nofp\libc_nano.a(lib_a-lock.o)
                0x000000000800758e                __retarget_lock_release_recursive
 .text.memchr   0x0000000008007590       0x1c c:/st/stm32cubeide_1.10.1/stm32cubeide/plugins/com.st.stm32cube.ide.mcu.externaltools.gnu-tools-for-stm32.10.3-2021.10.win32_1.0.0.202111181127/tools/bin/../lib/gcc/arm-none-eabi/10.3.1/../../../../arm-none-eabi/lib/thumb/v7-m/nofp\libc_nano.a(lib_a-memchr-stub.o)
                0x0000000008007590                memchr
 .text.memcpy   0x00000000080075ac       0x1c c:/st/stm32cubeide_1.10.1/stm32cubeide/plugins/com.st.stm32cube.ide.mcu.externaltools.gnu-tools-for-stm32.10.3-2021.10.win32_1.0.0.202111181127/tools/bin/../lib/gcc/arm-none-eabi/10.3.1/../../../../arm-none-eabi/lib/thumb/v7-m/nofp\libc_nano.a(lib_a-memcpy-stub.o)
                0x00000000080075ac                memcpy
 .text.memmove  0x00000000080075c8       0x34 c:/st/stm32cubeide_1.10.1/stm32cubeide/plugins/com.st.stm32cube.ide.mcu.externaltools.gnu-tools-for-stm32.10.3-2021.10.win32_1.0.0.202111181127/tools/bin/../lib/gcc/arm-none-eabi/10.3.1/../../../../arm-none-eabi/lib/thumb/v7-m/nofp\libc_nano.a(lib_a-memmove.o)
                0x00000000080075c8                memmove
 .text._realloc_r
                0x00000000080075fc       0x5e c:/st/stm32cubeide_1.10.1/stm32cubeide/plugins/com.st.stm32cube.ide.mcu.externaltools.gnu-tools-for-stm32.10.3-2021.10.win32_1.0.0.202111181127/tools/bin/../lib/gcc/arm-none-eabi/10.3.1/../../../../arm-none-eabi/lib/thumb/v7-m/nofp\libc_nano.a(lib_a-nano-reallocr.o)
                0x00000000080075fc                _realloc_r
 .text._malloc_usable_size_r
                0x000000000800765a       0x10 c:/st/stm32cubeide_1.10.1/stm32cubeide/plugins/com.st.stm32cube.ide.mcu.externaltools.gnu-tools-for-stm32.10.3-2021.10.win32_1.0.0.202111181127/tools/bin/../lib/gcc/arm-none-eabi/10.3.1/../../../../arm-none-eabi/lib/thumb/v7-m/nofp\libc_nano.a(lib_a-nano-msizer.o)
                0x000000000800765a                _malloc_usable_size_r
 *(.glue_7)
 .glue_7        0x000000000800766a        0x0 linker stubs
 *(.glue_7t)
 .glue_7t       0x000000000800766a        0x0 linker stubs
 *(.eh_frame)
 *fill*         0x000000000800766a        0x2 
 .eh_frame      0x000000000800766c        0x0 c:/st/stm32cubeide_1.10.1/stm32cubeide/plugins/com.st.stm32cube.ide.mcu.externaltools.gnu-tools-for-stm32.10.3-2021.10.win32_1.0.0.202111181127/tools/bin/../lib/gcc/arm-none-eabi/10.3.1/thumb/v7-m/nofp/crtbegin.o
 *(.init)
 .init          0x000000000800766c        0x4 c:/st/stm32cubeide_1.10.1/stm32cubeide/plugins/com.st.stm32cube.ide.mcu.externaltools.gnu-tools-for-stm32.10.3-2021.10.win32_1.0.0.202111181127/tools/bin/../lib/gcc/arm-none-eabi/10.3.1/thumb/v7-m/nofp/crti.o
                0x000000000800766c                _init
 .init          0x0000000008007670        0x8 c:/st/stm32cubeide_1.10.1/stm32cubeide/plugins/com.st.stm32cube.ide.mcu.externaltools.gnu-tools-for-stm32.10.3-2021.10.win32_1.0.0.202111181127/tools/bin/../lib/gcc/arm-none-eabi/10.3.1/thumb/v7-m/nofp/crtn.o
 *(.fini)
 .fini          0x0000000008007678        0x4 c:/st/stm32cubeide_1.10.1/stm32cubeide/plugins/com.st.stm32cube.ide.mcu.externaltools.gnu-tools-for-stm32.10.3-2021.10.win32_1.0.0.202111181127/tools/bin/../lib/gcc/arm-none-eabi/10.3.1/thumb/v7-m/nofp/crti.o
                0x0000000008007678                _fini
 .fini          0x000000000800767c        0x8 c:/st/stm32cubeide_1.10.1/stm32cubeide/plugins/com.st.stm32cube.ide.mcu.externaltools.gnu-tools-for-stm32.10.3-2021.10.win32_1.0.0.202111181127/tools/bin/../lib/gcc/arm-none-eabi/10.3.1/thumb/v7-m/nofp/crtn.o
                0x0000000008007684                . = ALIGN (0x4)
                0x0000000008007684                _etext = .

.vfp11_veneer   0x0000000008007684        0x0
 .vfp11_veneer  0x0000000008007684        0x0 linker stubs

.v4_bx          0x0000000008007684        0x0
 .v4_bx         0x0000000008007684        0x0 linker stubs

.iplt           0x0000000008007684        0x0
 .iplt          0x0000000008007684        0x0 c:/st/stm32cubeide_1.10.1/stm32cubeide/plugins/com.st.stm32cube.ide.mcu.externaltools.gnu-tools-for-stm32.10.3-2021.10.win32_1.0.0.202111181127/tools/bin/../lib/gcc/arm-none-eabi/10.3.1/thumb/v7-m/nofp/crtbegin.o

.rodata         0x0000000008007684      0x1b8
                0x0000000008007684                . = ALIGN (0x4)
 *(.rodata)
 .rodata        0x0000000008007684       0x4f ./App/Menu/Main_Menu.o
 *fill*         0x00000000080076d3        0x1 
 .rodata        0x00000000080076d4       0x6c ./App/Menu/Setting_Realtime_Menu.o
 .rodata        0x0000000008007740       0x5d ./App/Menu/Setting_Timeline_Menu.o
 *fill*         0x000000000800779d        0x3 
 .rodata        0x00000000080077a0       0x40 ./App/Menu/Timeline_List_Menu.o
 .rodata        0x00000000080077e0       0x10 ./Drivers/STM32F1xx_HAL_Driver/Src/stm32f1xx_hal_rcc.o
 *(.rodata*)
 .rodata.AHBPrescTable
                0x00000000080077f0       0x10 ./Core/Src/system_stm32f1xx.o
                0x00000000080077f0                AHBPrescTable
 .rodata.APBPrescTable
                0x0000000008007800        0x8 ./Core/Src/system_stm32f1xx.o
                0x0000000008007800                APBPrescTable
 .rodata._svfprintf_r.str1.1
                0x0000000008007808       0x11 c:/st/stm32cubeide_1.10.1/stm32cubeide/plugins/com.st.stm32cube.ide.mcu.externaltools.gnu-tools-for-stm32.10.3-2021.10.win32_1.0.0.202111181127/tools/bin/../lib/gcc/arm-none-eabi/10.3.1/../../../../arm-none-eabi/lib/thumb/v7-m/nofp\libc_nano.a(lib_a-nano-svfprintf.o)
 .rodata._printf_i.str1.1
                0x0000000008007819       0x22 c:/st/stm32cubeide_1.10.1/stm32cubeide/plugins/com.st.stm32cube.ide.mcu.externaltools.gnu-tools-for-stm32.10.3-2021.10.win32_1.0.0.202111181127/tools/bin/../lib/gcc/arm-none-eabi/10.3.1/../../../../arm-none-eabi/lib/thumb/v7-m/nofp\libc_nano.a(lib_a-nano-vfprintf_i.o)
                0x000000000800783c                . = ALIGN (0x4)
 *fill*         0x000000000800783b        0x1 

.rel.dyn        0x000000000800783c        0x0
 .rel.iplt      0x000000000800783c        0x0 c:/st/stm32cubeide_1.10.1/stm32cubeide/plugins/com.st.stm32cube.ide.mcu.externaltools.gnu-tools-for-stm32.10.3-2021.10.win32_1.0.0.202111181127/tools/bin/../lib/gcc/arm-none-eabi/10.3.1/thumb/v7-m/nofp/crtbegin.o

.ARM.extab      0x000000000800783c        0x0
                0x000000000800783c                . = ALIGN (0x4)
 *(.ARM.extab* .gnu.linkonce.armextab.*)
                0x000000000800783c                . = ALIGN (0x4)

.ARM            0x000000000800783c        0x0
                0x000000000800783c                . = ALIGN (0x4)
                0x000000000800783c                __exidx_start = .
 *(.ARM.exidx*)
                0x000000000800783c                __exidx_end = .
                0x000000000800783c                . = ALIGN (0x4)

.preinit_array  0x000000000800783c        0x0
                0x000000000800783c                . = ALIGN (0x4)
                0x000000000800783c                PROVIDE (__preinit_array_start = .)
 *(.preinit_array*)
                0x000000000800783c                PROVIDE (__preinit_array_end = .)
                0x000000000800783c                . = ALIGN (0x4)

.init_array     0x000000000800783c        0x4
                0x000000000800783c                . = ALIGN (0x4)
                0x000000000800783c                PROVIDE (__init_array_start = .)
 *(SORT_BY_NAME(.init_array.*))
 *(.init_array*)
 .init_array    0x000000000800783c        0x4 c:/st/stm32cubeide_1.10.1/stm32cubeide/plugins/com.st.stm32cube.ide.mcu.externaltools.gnu-tools-for-stm32.10.3-2021.10.win32_1.0.0.202111181127/tools/bin/../lib/gcc/arm-none-eabi/10.3.1/thumb/v7-m/nofp/crtbegin.o
                0x0000000008007840                PROVIDE (__init_array_end = .)
                0x0000000008007840                . = ALIGN (0x4)

.fini_array     0x0000000008007840        0x4
                0x0000000008007840                . = ALIGN (0x4)
                [!provide]                        PROVIDE (__fini_array_start = .)
 *(SORT_BY_NAME(.fini_array.*))
 *(.fini_array*)
 .fini_array    0x0000000008007840        0x4 c:/st/stm32cubeide_1.10.1/stm32cubeide/plugins/com.st.stm32cube.ide.mcu.externaltools.gnu-tools-for-stm32.10.3-2021.10.win32_1.0.0.202111181127/tools/bin/../lib/gcc/arm-none-eabi/10.3.1/thumb/v7-m/nofp/crtbegin.o
                [!provide]                        PROVIDE (__fini_array_end = .)
                0x0000000008007844                . = ALIGN (0x4)
                0x0000000008007844                _sidata = LOADADDR (.data)

.data           0x0000000020000000       0xfc load address 0x0000000008007844
                0x0000000020000000                . = ALIGN (0x4)
                0x0000000020000000                _sdata = .
 *(.data)
 *(.data*)
 .data.DAY_Str  0x0000000020000000       0x1c ./App/Menu/Main_Menu.o
                0x0000000020000000                DAY_Str
 .data.number_char
                0x000000002000001c       0x42 ./App/Menu/Main_Menu.o
 *fill*         0x000000002000005e        0x2 
 .data.__max_value
                0x0000000020000060        0x6 ./App/Menu/Setting_Realtime_Menu.o
 *fill*         0x0000000020000066        0x2 
 .data.__setting_type_str
                0x0000000020000068       0x18 ./App/Menu/Setting_Realtime_Menu.o
                0x0000000020000068                __setting_type_str
 .data.__max_value
                0x0000000020000080        0x9 ./App/Menu/Setting_Timeline_Menu.o
 *fill*         0x0000000020000089        0x3 
 .data.SystemCoreClock
                0x000000002000008c        0x4 ./Core/Src/system_stm32f1xx.o
                0x000000002000008c                SystemCoreClock
 .data.uwTickPrio
                0x0000000020000090        0x4 ./Drivers/STM32F1xx_HAL_Driver/Src/stm32f1xx_hal.o
                0x0000000020000090                uwTickPrio
 .data.uwTickFreq
                0x0000000020000094        0x1 ./Drivers/STM32F1xx_HAL_Driver/Src/stm32f1xx_hal.o
                0x0000000020000094                uwTickFreq
 *fill*         0x0000000020000095        0x3 
 .data._impure_ptr
                0x0000000020000098        0x4 c:/st/stm32cubeide_1.10.1/stm32cubeide/plugins/com.st.stm32cube.ide.mcu.externaltools.gnu-tools-for-stm32.10.3-2021.10.win32_1.0.0.202111181127/tools/bin/../lib/gcc/arm-none-eabi/10.3.1/../../../../arm-none-eabi/lib/thumb/v7-m/nofp\libc_nano.a(lib_a-impure.o)
                0x0000000020000098                _impure_ptr
 .data.impure_data
                0x000000002000009c       0x60 c:/st/stm32cubeide_1.10.1/stm32cubeide/plugins/com.st.stm32cube.ide.mcu.externaltools.gnu-tools-for-stm32.10.3-2021.10.win32_1.0.0.202111181127/tools/bin/../lib/gcc/arm-none-eabi/10.3.1/../../../../arm-none-eabi/lib/thumb/v7-m/nofp\libc_nano.a(lib_a-impure.o)
 *(.RamFunc)
 *(.RamFunc*)
                0x00000000200000fc                . = ALIGN (0x4)
                0x00000000200000fc                _edata = .

.igot.plt       0x00000000200000fc        0x0 load address 0x0000000008007940
 .igot.plt      0x00000000200000fc        0x0 c:/st/stm32cubeide_1.10.1/stm32cubeide/plugins/com.st.stm32cube.ide.mcu.externaltools.gnu-tools-for-stm32.10.3-2021.10.win32_1.0.0.202111181127/tools/bin/../lib/gcc/arm-none-eabi/10.3.1/thumb/v7-m/nofp/crtbegin.o
                0x00000000200000fc                . = ALIGN (0x4)

.bss            0x0000000020000100      0x3ec load address 0x0000000008007940
                0x0000000020000100                _sbss = .
                0x0000000020000100                __bss_start__ = _sbss
 *(.bss)
 .bss           0x0000000020000100       0x1c c:/st/stm32cubeide_1.10.1/stm32cubeide/plugins/com.st.stm32cube.ide.mcu.externaltools.gnu-tools-for-stm32.10.3-2021.10.win32_1.0.0.202111181127/tools/bin/../lib/gcc/arm-none-eabi/10.3.1/thumb/v7-m/nofp/crtbegin.o
 *(.bss*)
 .bss.MENU_Data
                0x000000002000011c        0xc ./App/Menu/Menu.o
                0x000000002000011c                MENU_Data
 .bss.SR_MENU_Data
                0x0000000020000128        0x7 ./App/Menu/Setting_Realtime_Menu.o
                0x0000000020000128                SR_MENU_Data
 *fill*         0x000000002000012f        0x1 
 .bss.ST_MENU_Data
                0x0000000020000130        0x6 ./App/Menu/Setting_Timeline_Menu.o
                0x0000000020000130                ST_MENU_Data
 *fill*         0x0000000020000136        0x2 
 .bss.TL_MENU_Data
                0x0000000020000138      0x140 ./App/Menu/Timeline_List_Menu.o
                0x0000000020000138                TL_MENU_Data
 .bss.h_encoder_button
                0x0000000020000278       0x18 ./App/Rotary_Encoder.o
                0x0000000020000278                h_encoder_button
 .bss.h_encoder
                0x0000000020000290        0x8 ./App/Rotary_Encoder.o
                0x0000000020000290                h_encoder
 .bss.TIMELINE_Data
                0x0000000020000298       0x40 ./App/Timeline_Manage.o
                0x0000000020000298                TIMELINE_Data
 .bss.hds3231   0x00000000200002d8        0xc ./App/real_time.o
                0x00000000200002d8                hds3231
 .bss.REALTIME_Data
                0x00000000200002e4        0x6 ./App/real_time.o
                0x00000000200002e4                REALTIME_Data
 *fill*         0x00000000200002ea        0x2 
 .bss.timer     0x00000000200002ec        0x4 ./App/real_time.o
 .bss.hi2c1     0x00000000200002f0       0x54 ./Core/Src/main.o
                0x00000000200002f0                hi2c1
 .bss.hi2c2     0x0000000020000344       0x54 ./Core/Src/main.o
                0x0000000020000344                hi2c2
 .bss.htim2     0x0000000020000398       0x48 ./Core/Src/main.o
                0x0000000020000398                htim2
 .bss.htim4     0x00000000200003e0       0x48 ./Core/Src/main.o
                0x00000000200003e0                htim4
 .bss.huart1    0x0000000020000428       0x44 ./Core/Src/main.o
                0x0000000020000428                huart1
 .bss.hlcd      0x000000002000046c        0xc ./Core/Src/main.o
                0x000000002000046c                hlcd
 .bss.hdht      0x0000000020000478       0x14 ./Core/Src/main.o
                0x0000000020000478                hdht
 .bss.timer.2   0x000000002000048c        0x4 ./Core/Src/main.o
 .bss.system_huminity.1
                0x0000000020000490        0x1 ./Core/Src/main.o
 .bss.system_temperature.0
                0x0000000020000491        0x1 ./Core/Src/main.o
 *fill*         0x0000000020000492        0x2 
 .bss.__sbrk_heap_end
                0x0000000020000494        0x4 ./Core/Src/sysmem.o
 .bss.uwTick    0x0000000020000498        0x4 ./Drivers/STM32F1xx_HAL_Driver/Src/stm32f1xx_hal.o
                0x0000000020000498                uwTick
 *fill*         0x000000002000049c        0x4 
 .bss.pFlash    0x00000000200004a0       0x20 ./Drivers/STM32F1xx_HAL_Driver/Src/stm32f1xx_hal_flash.o
                0x00000000200004a0                pFlash
 .bss.delay_timer
                0x00000000200004c0        0x4 ./Libraries/Delay_us.o
                0x00000000200004c0                delay_timer
 .bss.__ENCODER_Forward_Callback
                0x00000000200004c4        0x4 ./Libraries/Encoder.o
                0x00000000200004c4                __ENCODER_Forward_Callback
 .bss.__ENCODER_Backward_Callback
                0x00000000200004c8        0x4 ./Libraries/Encoder.o
                0x00000000200004c8                __ENCODER_Backward_Callback
 .bss.__BUTTON_Pressing_Callback
                0x00000000200004cc        0x4 ./Libraries/button.o
                0x00000000200004cc                __BUTTON_Pressing_Callback
 .bss.__BUTTON_Releasing_Callback
                0x00000000200004d0        0x4 ./Libraries/button.o
                0x00000000200004d0                __BUTTON_Releasing_Callback
 .bss.__BUTTON_Short_Pressing_Callback
                0x00000000200004d4        0x4 ./Libraries/button.o
                0x00000000200004d4                __BUTTON_Short_Pressing_Callback
 .bss.__BUTTON_Long_Pressing_Callback
                0x00000000200004d8        0x4 ./Libraries/button.o
                0x00000000200004d8                __BUTTON_Long_Pressing_Callback
 .bss.__malloc_free_list
                0x00000000200004dc        0x4 c:/st/stm32cubeide_1.10.1/stm32cubeide/plugins/com.st.stm32cube.ide.mcu.externaltools.gnu-tools-for-stm32.10.3-2021.10.win32_1.0.0.202111181127/tools/bin/../lib/gcc/arm-none-eabi/10.3.1/../../../../arm-none-eabi/lib/thumb/v7-m/nofp\libc_nano.a(lib_a-nano-mallocr.o)
                0x00000000200004dc                __malloc_free_list
 .bss.__malloc_sbrk_start
                0x00000000200004e0        0x4 c:/st/stm32cubeide_1.10.1/stm32cubeide/plugins/com.st.stm32cube.ide.mcu.externaltools.gnu-tools-for-stm32.10.3-2021.10.win32_1.0.0.202111181127/tools/bin/../lib/gcc/arm-none-eabi/10.3.1/../../../../arm-none-eabi/lib/thumb/v7-m/nofp\libc_nano.a(lib_a-nano-mallocr.o)
                0x00000000200004e0                __malloc_sbrk_start
 .bss.errno     0x00000000200004e4        0x4 c:/st/stm32cubeide_1.10.1/stm32cubeide/plugins/com.st.stm32cube.ide.mcu.externaltools.gnu-tools-for-stm32.10.3-2021.10.win32_1.0.0.202111181127/tools/bin/../lib/gcc/arm-none-eabi/10.3.1/../../../../arm-none-eabi/lib/thumb/v7-m/nofp\libc_nano.a(lib_a-reent.o)
                0x00000000200004e4                errno
 .bss.__lock___malloc_recursive_mutex
                0x00000000200004e8        0x1 c:/st/stm32cubeide_1.10.1/stm32cubeide/plugins/com.st.stm32cube.ide.mcu.externaltools.gnu-tools-for-stm32.10.3-2021.10.win32_1.0.0.202111181127/tools/bin/../lib/gcc/arm-none-eabi/10.3.1/../../../../arm-none-eabi/lib/thumb/v7-m/nofp\libc_nano.a(lib_a-lock.o)
                0x00000000200004e8                __lock___malloc_recursive_mutex
 *(COMMON)
                0x00000000200004ec                . = ALIGN (0x4)
 *fill*         0x00000000200004e9        0x3 
                0x00000000200004ec                _ebss = .
                0x00000000200004ec                __bss_end__ = _ebss

._user_heap_stack
                0x00000000200004ec      0x604 load address 0x0000000008007940
                0x00000000200004f0                . = ALIGN (0x8)
 *fill*         0x00000000200004ec        0x4 
                [!provide]                        PROVIDE (end = .)
                0x00000000200004f0                PROVIDE (_end = .)
                0x00000000200006f0                . = (. + _Min_Heap_Size)
 *fill*         0x00000000200004f0      0x200 
                0x0000000020000af0                . = (. + _Min_Stack_Size)
 *fill*         0x00000000200006f0      0x400 
                0x0000000020000af0                . = ALIGN (0x8)

/DISCARD/
 libc.a(*)
 libm.a(*)
 libgcc.a(*)

.ARM.attributes
                0x0000000000000000       0x29
 *(.ARM.attributes)
 .ARM.attributes
                0x0000000000000000       0x1d c:/st/stm32cubeide_1.10.1/stm32cubeide/plugins/com.st.stm32cube.ide.mcu.externaltools.gnu-tools-for-stm32.10.3-2021.10.win32_1.0.0.202111181127/tools/bin/../lib/gcc/arm-none-eabi/10.3.1/thumb/v7-m/nofp/crti.o
 .ARM.attributes
                0x000000000000001d       0x2d c:/st/stm32cubeide_1.10.1/stm32cubeide/plugins/com.st.stm32cube.ide.mcu.externaltools.gnu-tools-for-stm32.10.3-2021.10.win32_1.0.0.202111181127/tools/bin/../lib/gcc/arm-none-eabi/10.3.1/thumb/v7-m/nofp/crtbegin.o
 .ARM.attributes
                0x000000000000004a       0x2d ./App/Menu/Main_Menu.o
 .ARM.attributes
                0x0000000000000077       0x2d ./App/Menu/Menu.o
 .ARM.attributes
                0x00000000000000a4       0x2d ./App/Menu/Setting_Realtime_Menu.o
 .ARM.attributes
                0x00000000000000d1       0x2d ./App/Menu/Setting_Timeline_Menu.o
 .ARM.attributes
                0x00000000000000fe       0x2d ./App/Menu/Timeline_List_Menu.o
 .ARM.attributes
                0x000000000000012b       0x2d ./App/Rotary_Encoder.o
 .ARM.attributes
                0x0000000000000158       0x2d ./App/Timeline_Manage.o
 .ARM.attributes
                0x0000000000000185       0x2d ./App/real_time.o
 .ARM.attributes
                0x00000000000001b2       0x2d ./Core/Src/main.o
 .ARM.attributes
                0x00000000000001df       0x2d ./Core/Src/stm32f1xx_hal_msp.o
 .ARM.attributes
                0x000000000000020c       0x2d ./Core/Src/stm32f1xx_it.o
 .ARM.attributes
                0x0000000000000239       0x2d ./Core/Src/sysmem.o
 .ARM.attributes
                0x0000000000000266       0x2d ./Core/Src/system_stm32f1xx.o
 .ARM.attributes
                0x0000000000000293       0x21 ./Core/Startup/startup_stm32f103c8tx.o
 .ARM.attributes
                0x00000000000002b4       0x2d ./Drivers/STM32F1xx_HAL_Driver/Src/stm32f1xx_hal.o
 .ARM.attributes
                0x00000000000002e1       0x2d ./Drivers/STM32F1xx_HAL_Driver/Src/stm32f1xx_hal_cortex.o
 .ARM.attributes
                0x000000000000030e       0x2d ./Drivers/STM32F1xx_HAL_Driver/Src/stm32f1xx_hal_dma.o
 .ARM.attributes
                0x000000000000033b       0x2d ./Drivers/STM32F1xx_HAL_Driver/Src/stm32f1xx_hal_flash.o
 .ARM.attributes
                0x0000000000000368       0x2d ./Drivers/STM32F1xx_HAL_Driver/Src/stm32f1xx_hal_flash_ex.o
 .ARM.attributes
                0x0000000000000395       0x2d ./Drivers/STM32F1xx_HAL_Driver/Src/stm32f1xx_hal_gpio.o
 .ARM.attributes
                0x00000000000003c2       0x2d ./Drivers/STM32F1xx_HAL_Driver/Src/stm32f1xx_hal_i2c.o
 .ARM.attributes
                0x00000000000003ef       0x2d ./Drivers/STM32F1xx_HAL_Driver/Src/stm32f1xx_hal_rcc.o
 .ARM.attributes
                0x000000000000041c       0x2d ./Drivers/STM32F1xx_HAL_Driver/Src/stm32f1xx_hal_tim.o
 .ARM.attributes
                0x0000000000000449       0x2d ./Drivers/STM32F1xx_HAL_Driver/Src/stm32f1xx_hal_tim_ex.o
 .ARM.attributes
                0x0000000000000476       0x2d ./Drivers/STM32F1xx_HAL_Driver/Src/stm32f1xx_hal_uart.o
 .ARM.attributes
                0x00000000000004a3       0x2d ./Libraries/DHT.o
 .ARM.attributes
                0x00000000000004d0       0x2d ./Libraries/DS3231.o
 .ARM.attributes
                0x00000000000004fd       0x2d ./Libraries/Delay_us.o
 .ARM.attributes
                0x000000000000052a       0x2d ./Libraries/Encoder.o
 .ARM.attributes
                0x0000000000000557       0x2d ./Libraries/LCD_I2C.o
 .ARM.attributes
                0x0000000000000584       0x2d ./Libraries/button.o
 .ARM.attributes
                0x00000000000005b1       0x2d ./Libraries/flash.o
 .ARM.attributes
                0x00000000000005de       0x2d c:/st/stm32cubeide_1.10.1/stm32cubeide/plugins/com.st.stm32cube.ide.mcu.externaltools.gnu-tools-for-stm32.10.3-2021.10.win32_1.0.0.202111181127/tools/bin/../lib/gcc/arm-none-eabi/10.3.1/../../../../arm-none-eabi/lib/thumb/v7-m/nofp\libc_nano.a(lib_a-errno.o)
 .ARM.attributes
                0x000000000000060b       0x2d c:/st/stm32cubeide_1.10.1/stm32cubeide/plugins/com.st.stm32cube.ide.mcu.externaltools.gnu-tools-for-stm32.10.3-2021.10.win32_1.0.0.202111181127/tools/bin/../lib/gcc/arm-none-eabi/10.3.1/../../../../arm-none-eabi/lib/thumb/v7-m/nofp\libc_nano.a(lib_a-impure.o)
 .ARM.attributes
                0x0000000000000638       0x2d c:/st/stm32cubeide_1.10.1/stm32cubeide/plugins/com.st.stm32cube.ide.mcu.externaltools.gnu-tools-for-stm32.10.3-2021.10.win32_1.0.0.202111181127/tools/bin/../lib/gcc/arm-none-eabi/10.3.1/../../../../arm-none-eabi/lib/thumb/v7-m/nofp\libc_nano.a(lib_a-init.o)
 .ARM.attributes
                0x0000000000000665       0x2d c:/st/stm32cubeide_1.10.1/stm32cubeide/plugins/com.st.stm32cube.ide.mcu.externaltools.gnu-tools-for-stm32.10.3-2021.10.win32_1.0.0.202111181127/tools/bin/../lib/gcc/arm-none-eabi/10.3.1/../../../../arm-none-eabi/lib/thumb/v7-m/nofp\libc_nano.a(lib_a-malloc.o)
 .ARM.attributes
                0x0000000000000692       0x2d c:/st/stm32cubeide_1.10.1/stm32cubeide/plugins/com.st.stm32cube.ide.mcu.externaltools.gnu-tools-for-stm32.10.3-2021.10.win32_1.0.0.202111181127/tools/bin/../lib/gcc/arm-none-eabi/10.3.1/../../../../arm-none-eabi/lib/thumb/v7-m/nofp\libc_nano.a(lib_a-memset.o)
 .ARM.attributes
                0x00000000000006bf       0x2d c:/st/stm32cubeide_1.10.1/stm32cubeide/plugins/com.st.stm32cube.ide.mcu.externaltools.gnu-tools-for-stm32.10.3-2021.10.win32_1.0.0.202111181127/tools/bin/../lib/gcc/arm-none-eabi/10.3.1/../../../../arm-none-eabi/lib/thumb/v7-m/nofp\libc_nano.a(lib_a-nano-freer.o)
 .ARM.attributes
                0x00000000000006ec       0x2d c:/st/stm32cubeide_1.10.1/stm32cubeide/plugins/com.st.stm32cube.ide.mcu.externaltools.gnu-tools-for-stm32.10.3-2021.10.win32_1.0.0.202111181127/tools/bin/../lib/gcc/arm-none-eabi/10.3.1/../../../../arm-none-eabi/lib/thumb/v7-m/nofp\libc_nano.a(lib_a-nano-mallocr.o)
 .ARM.attributes
                0x0000000000000719       0x2d c:/st/stm32cubeide_1.10.1/stm32cubeide/plugins/com.st.stm32cube.ide.mcu.externaltools.gnu-tools-for-stm32.10.3-2021.10.win32_1.0.0.202111181127/tools/bin/../lib/gcc/arm-none-eabi/10.3.1/../../../../arm-none-eabi/lib/thumb/v7-m/nofp\libc_nano.a(lib_a-sbrkr.o)
 .ARM.attributes
                0x0000000000000746       0x2d c:/st/stm32cubeide_1.10.1/stm32cubeide/plugins/com.st.stm32cube.ide.mcu.externaltools.gnu-tools-for-stm32.10.3-2021.10.win32_1.0.0.202111181127/tools/bin/../lib/gcc/arm-none-eabi/10.3.1/../../../../arm-none-eabi/lib/thumb/v7-m/nofp\libc_nano.a(lib_a-sprintf.o)
 .ARM.attributes
                0x0000000000000773       0x2d c:/st/stm32cubeide_1.10.1/stm32cubeide/plugins/com.st.stm32cube.ide.mcu.externaltools.gnu-tools-for-stm32.10.3-2021.10.win32_1.0.0.202111181127/tools/bin/../lib/gcc/arm-none-eabi/10.3.1/../../../../arm-none-eabi/lib/thumb/v7-m/nofp\libc_nano.a(lib_a-strcpy.o)
 .ARM.attributes
                0x00000000000007a0       0x17 c:/st/stm32cubeide_1.10.1/stm32cubeide/plugins/com.st.stm32cube.ide.mcu.externaltools.gnu-tools-for-stm32.10.3-2021.10.win32_1.0.0.202111181127/tools/bin/../lib/gcc/arm-none-eabi/10.3.1/../../../../arm-none-eabi/lib/thumb/v7-m/nofp\libc_nano.a(lib_a-strlen.o)
 .ARM.attributes
                0x00000000000007b7       0x2d c:/st/stm32cubeide_1.10.1/stm32cubeide/plugins/com.st.stm32cube.ide.mcu.externaltools.gnu-tools-for-stm32.10.3-2021.10.win32_1.0.0.202111181127/tools/bin/../lib/gcc/arm-none-eabi/10.3.1/../../../../arm-none-eabi/lib/thumb/v7-m/nofp\libc_nano.a(lib_a-vsprintf.o)
 .ARM.attributes
                0x00000000000007e4       0x2d c:/st/stm32cubeide_1.10.1/stm32cubeide/plugins/com.st.stm32cube.ide.mcu.externaltools.gnu-tools-for-stm32.10.3-2021.10.win32_1.0.0.202111181127/tools/bin/../lib/gcc/arm-none-eabi/10.3.1/../../../../arm-none-eabi/lib/thumb/v7-m/nofp\libc_nano.a(lib_a-mlock.o)
 .ARM.attributes
                0x0000000000000811       0x2d c:/st/stm32cubeide_1.10.1/stm32cubeide/plugins/com.st.stm32cube.ide.mcu.externaltools.gnu-tools-for-stm32.10.3-2021.10.win32_1.0.0.202111181127/tools/bin/../lib/gcc/arm-none-eabi/10.3.1/../../../../arm-none-eabi/lib/thumb/v7-m/nofp\libc_nano.a(lib_a-nano-svfprintf.o)
 .ARM.attributes
                0x000000000000083e       0x2d c:/st/stm32cubeide_1.10.1/stm32cubeide/plugins/com.st.stm32cube.ide.mcu.externaltools.gnu-tools-for-stm32.10.3-2021.10.win32_1.0.0.202111181127/tools/bin/../lib/gcc/arm-none-eabi/10.3.1/../../../../arm-none-eabi/lib/thumb/v7-m/nofp\libc_nano.a(lib_a-nano-vfprintf_i.o)
 .ARM.attributes
                0x000000000000086b       0x2d c:/st/stm32cubeide_1.10.1/stm32cubeide/plugins/com.st.stm32cube.ide.mcu.externaltools.gnu-tools-for-stm32.10.3-2021.10.win32_1.0.0.202111181127/tools/bin/../lib/gcc/arm-none-eabi/10.3.1/../../../../arm-none-eabi/lib/thumb/v7-m/nofp\libc_nano.a(lib_a-reent.o)
 .ARM.attributes
                0x0000000000000898       0x2d c:/st/stm32cubeide_1.10.1/stm32cubeide/plugins/com.st.stm32cube.ide.mcu.externaltools.gnu-tools-for-stm32.10.3-2021.10.win32_1.0.0.202111181127/tools/bin/../lib/gcc/arm-none-eabi/10.3.1/../../../../arm-none-eabi/lib/thumb/v7-m/nofp\libc_nano.a(lib_a-lock.o)
 .ARM.attributes
                0x00000000000008c5       0x2d c:/st/stm32cubeide_1.10.1/stm32cubeide/plugins/com.st.stm32cube.ide.mcu.externaltools.gnu-tools-for-stm32.10.3-2021.10.win32_1.0.0.202111181127/tools/bin/../lib/gcc/arm-none-eabi/10.3.1/../../../../arm-none-eabi/lib/thumb/v7-m/nofp\libc_nano.a(lib_a-memchr-stub.o)
 .ARM.attributes
                0x00000000000008f2       0x2d c:/st/stm32cubeide_1.10.1/stm32cubeide/plugins/com.st.stm32cube.ide.mcu.externaltools.gnu-tools-for-stm32.10.3-2021.10.win32_1.0.0.202111181127/tools/bin/../lib/gcc/arm-none-eabi/10.3.1/../../../../arm-none-eabi/lib/thumb/v7-m/nofp\libc_nano.a(lib_a-memcpy-stub.o)
 .ARM.attributes
                0x000000000000091f       0x2d c:/st/stm32cubeide_1.10.1/stm32cubeide/plugins/com.st.stm32cube.ide.mcu.externaltools.gnu-tools-for-stm32.10.3-2021.10.win32_1.0.0.202111181127/tools/bin/../lib/gcc/arm-none-eabi/10.3.1/../../../../arm-none-eabi/lib/thumb/v7-m/nofp\libc_nano.a(lib_a-memmove.o)
 .ARM.attributes
                0x000000000000094c       0x2d c:/st/stm32cubeide_1.10.1/stm32cubeide/plugins/com.st.stm32cube.ide.mcu.externaltools.gnu-tools-for-stm32.10.3-2021.10.win32_1.0.0.202111181127/tools/bin/../lib/gcc/arm-none-eabi/10.3.1/../../../../arm-none-eabi/lib/thumb/v7-m/nofp\libc_nano.a(lib_a-nano-reallocr.o)
 .ARM.attributes
                0x0000000000000979       0x2d c:/st/stm32cubeide_1.10.1/stm32cubeide/plugins/com.st.stm32cube.ide.mcu.externaltools.gnu-tools-for-stm32.10.3-2021.10.win32_1.0.0.202111181127/tools/bin/../lib/gcc/arm-none-eabi/10.3.1/../../../../arm-none-eabi/lib/thumb/v7-m/nofp\libc_nano.a(lib_a-nano-msizer.o)
 .ARM.attributes
                0x00000000000009a6       0x1d c:/st/stm32cubeide_1.10.1/stm32cubeide/plugins/com.st.stm32cube.ide.mcu.externaltools.gnu-tools-for-stm32.10.3-2021.10.win32_1.0.0.202111181127/tools/bin/../lib/gcc/arm-none-eabi/10.3.1/thumb/v7-m/nofp\libgcc.a(_arm_addsubdf3.o)
 .ARM.attributes
                0x00000000000009c3       0x1d c:/st/stm32cubeide_1.10.1/stm32cubeide/plugins/com.st.stm32cube.ide.mcu.externaltools.gnu-tools-for-stm32.10.3-2021.10.win32_1.0.0.202111181127/tools/bin/../lib/gcc/arm-none-eabi/10.3.1/thumb/v7-m/nofp\libgcc.a(_arm_truncdfsf2.o)
 .ARM.attributes
                0x00000000000009e0       0x1d c:/st/stm32cubeide_1.10.1/stm32cubeide/plugins/com.st.stm32cube.ide.mcu.externaltools.gnu-tools-for-stm32.10.3-2021.10.win32_1.0.0.202111181127/tools/bin/../lib/gcc/arm-none-eabi/10.3.1/thumb/v7-m/nofp\libgcc.a(_arm_fixunssfsi.o)
 .ARM.attributes
                0x00000000000009fd       0x1d c:/st/stm32cubeide_1.10.1/stm32cubeide/plugins/com.st.stm32cube.ide.mcu.externaltools.gnu-tools-for-stm32.10.3-2021.10.win32_1.0.0.202111181127/tools/bin/../lib/gcc/arm-none-eabi/10.3.1/thumb/v7-m/nofp/crtn.o
OUTPUT(Digital_Clock_1.0.elf elf32-littlearm)
LOAD linker stubs
LOAD c:/st/stm32cubeide_1.10.1/stm32cubeide/plugins/com.st.stm32cube.ide.mcu.externaltools.gnu-tools-for-stm32.10.3-2021.10.win32_1.0.0.202111181127/tools/bin/../lib/gcc/arm-none-eabi/10.3.1/../../../../arm-none-eabi/lib/thumb/v7-m/nofp\libc.a
LOAD c:/st/stm32cubeide_1.10.1/stm32cubeide/plugins/com.st.stm32cube.ide.mcu.externaltools.gnu-tools-for-stm32.10.3-2021.10.win32_1.0.0.202111181127/tools/bin/../lib/gcc/arm-none-eabi/10.3.1/../../../../arm-none-eabi/lib/thumb/v7-m/nofp\libm.a
LOAD c:/st/stm32cubeide_1.10.1/stm32cubeide/plugins/com.st.stm32cube.ide.mcu.externaltools.gnu-tools-for-stm32.10.3-2021.10.win32_1.0.0.202111181127/tools/bin/../lib/gcc/arm-none-eabi/10.3.1/thumb/v7-m/nofp\libgcc.a

.debug_info     0x0000000000000000    0x16390
 .debug_info    0x0000000000000000      0xa32 ./App/Menu/Main_Menu.o
 .debug_info    0x0000000000000a32      0x757 ./App/Menu/Menu.o
 .debug_info    0x0000000000001189      0xa1c ./App/Menu/Setting_Realtime_Menu.o
 .debug_info    0x0000000000001ba5      0x9bb ./App/Menu/Setting_Timeline_Menu.o
 .debug_info    0x0000000000002560      0xacd ./App/Menu/Timeline_List_Menu.o
 .debug_info    0x000000000000302d      0xe97 ./App/Rotary_Encoder.o
 .debug_info    0x0000000000003ec4      0x3ce ./App/Timeline_Manage.o
 .debug_info    0x0000000000004292      0x8e7 ./App/real_time.o
 .debug_info    0x0000000000004b79     0x1522 ./Core/Src/main.o
 .debug_info    0x000000000000609b     0x11cf ./Core/Src/stm32f1xx_hal_msp.o
 .debug_info    0x000000000000726a      0x989 ./Core/Src/stm32f1xx_it.o
 .debug_info    0x0000000000007bf3      0x171 ./Core/Src/sysmem.o
 .debug_info    0x0000000000007d64      0x23d ./Core/Src/system_stm32f1xx.o
 .debug_info    0x0000000000007fa1       0x22 ./Core/Startup/startup_stm32f103c8tx.o
 .debug_info    0x0000000000007fc3      0x734 ./Drivers/STM32F1xx_HAL_Driver/Src/stm32f1xx_hal.o
 .debug_info    0x00000000000086f7      0xb20 ./Drivers/STM32F1xx_HAL_Driver/Src/stm32f1xx_hal_cortex.o
 .debug_info    0x0000000000009217      0x73f ./Drivers/STM32F1xx_HAL_Driver/Src/stm32f1xx_hal_dma.o
 .debug_info    0x0000000000009956      0x547 ./Drivers/STM32F1xx_HAL_Driver/Src/stm32f1xx_hal_flash.o
 .debug_info    0x0000000000009e9d      0x7e5 ./Drivers/STM32F1xx_HAL_Driver/Src/stm32f1xx_hal_flash_ex.o
 .debug_info    0x000000000000a682      0x615 ./Drivers/STM32F1xx_HAL_Driver/Src/stm32f1xx_hal_gpio.o
 .debug_info    0x000000000000ac97     0x2734 ./Drivers/STM32F1xx_HAL_Driver/Src/stm32f1xx_hal_i2c.o
 .debug_info    0x000000000000d3cb      0x860 ./Drivers/STM32F1xx_HAL_Driver/Src/stm32f1xx_hal_rcc.o
 .debug_info    0x000000000000dc2b     0x29de ./Drivers/STM32F1xx_HAL_Driver/Src/stm32f1xx_hal_tim.o
 .debug_info    0x0000000000010609     0x1513 ./Drivers/STM32F1xx_HAL_Driver/Src/stm32f1xx_hal_tim_ex.o
 .debug_info    0x0000000000011b1c     0x15d8 ./Drivers/STM32F1xx_HAL_Driver/Src/stm32f1xx_hal_uart.o
 .debug_info    0x00000000000130f4      0xa44 ./Libraries/DHT.o
 .debug_info    0x0000000000013b38      0x8d1 ./Libraries/DS3231.o
 .debug_info    0x0000000000014409      0x6c9 ./Libraries/Delay_us.o
 .debug_info    0x0000000000014ad2      0x79d ./Libraries/Encoder.o
 .debug_info    0x000000000001526f      0xaf5 ./Libraries/LCD_I2C.o
 .debug_info    0x0000000000015d64      0x351 ./Libraries/button.o
 .debug_info    0x00000000000160b5      0x2db ./Libraries/flash.o

.debug_abbrev   0x0000000000000000     0x3d82
 .debug_abbrev  0x0000000000000000      0x1fc ./App/Menu/Main_Menu.o
 .debug_abbrev  0x00000000000001fc      0x16d ./App/Menu/Menu.o
 .debug_abbrev  0x0000000000000369      0x231 ./App/Menu/Setting_Realtime_Menu.o
 .debug_abbrev  0x000000000000059a      0x230 ./App/Menu/Setting_Timeline_Menu.o
 .debug_abbrev  0x00000000000007ca      0x26b ./App/Menu/Timeline_List_Menu.o
 .debug_abbrev  0x0000000000000a35      0x1e7 ./App/Rotary_Encoder.o
 .debug_abbrev  0x0000000000000c1c      0x188 ./App/Timeline_Manage.o
 .debug_abbrev  0x0000000000000da4      0x1d4 ./App/real_time.o
 .debug_abbrev  0x0000000000000f78      0x2e1 ./Core/Src/main.o
 .debug_abbrev  0x0000000000001259      0x23b ./Core/Src/stm32f1xx_hal_msp.o
 .debug_abbrev  0x0000000000001494      0x184 ./Core/Src/stm32f1xx_it.o
 .debug_abbrev  0x0000000000001618       0xbb ./Core/Src/sysmem.o
 .debug_abbrev  0x00000000000016d3      0x13b ./Core/Src/system_stm32f1xx.o
 .debug_abbrev  0x000000000000180e       0x12 ./Core/Startup/startup_stm32f103c8tx.o
 .debug_abbrev  0x0000000000001820      0x1fb ./Drivers/STM32F1xx_HAL_Driver/Src/stm32f1xx_hal.o
 .debug_abbrev  0x0000000000001a1b      0x2ed ./Drivers/STM32F1xx_HAL_Driver/Src/stm32f1xx_hal_cortex.o
 .debug_abbrev  0x0000000000001d08      0x1fe ./Drivers/STM32F1xx_HAL_Driver/Src/stm32f1xx_hal_dma.o
 .debug_abbrev  0x0000000000001f06      0x243 ./Drivers/STM32F1xx_HAL_Driver/Src/stm32f1xx_hal_flash.o
 .debug_abbrev  0x0000000000002149      0x23b ./Drivers/STM32F1xx_HAL_Driver/Src/stm32f1xx_hal_flash_ex.o
 .debug_abbrev  0x0000000000002384      0x1bb ./Drivers/STM32F1xx_HAL_Driver/Src/stm32f1xx_hal_gpio.o
 .debug_abbrev  0x000000000000253f      0x288 ./Drivers/STM32F1xx_HAL_Driver/Src/stm32f1xx_hal_i2c.o
 .debug_abbrev  0x00000000000027c7      0x2a8 ./Drivers/STM32F1xx_HAL_Driver/Src/stm32f1xx_hal_rcc.o
 .debug_abbrev  0x0000000000002a6f      0x25d ./Drivers/STM32F1xx_HAL_Driver/Src/stm32f1xx_hal_tim.o
 .debug_abbrev  0x0000000000002ccc      0x265 ./Drivers/STM32F1xx_HAL_Driver/Src/stm32f1xx_hal_tim_ex.o
 .debug_abbrev  0x0000000000002f31      0x278 ./Drivers/STM32F1xx_HAL_Driver/Src/stm32f1xx_hal_uart.o
 .debug_abbrev  0x00000000000031a9      0x22b ./Libraries/DHT.o
 .debug_abbrev  0x00000000000033d4      0x1c7 ./Libraries/DS3231.o
 .debug_abbrev  0x000000000000359b      0x186 ./Libraries/Delay_us.o
 .debug_abbrev  0x0000000000003721      0x1af ./Libraries/Encoder.o
 .debug_abbrev  0x00000000000038d0      0x1f0 ./Libraries/LCD_I2C.o
 .debug_abbrev  0x0000000000003ac0      0x16f ./Libraries/button.o
 .debug_abbrev  0x0000000000003c2f      0x153 ./Libraries/flash.o

.debug_aranges  0x0000000000000000     0x13e8
 .debug_aranges
                0x0000000000000000       0x40 ./App/Menu/Main_Menu.o
 .debug_aranges
                0x0000000000000040       0x28 ./App/Menu/Menu.o
 .debug_aranges
                0x0000000000000068       0x40 ./App/Menu/Setting_Realtime_Menu.o
 .debug_aranges
                0x00000000000000a8       0x40 ./App/Menu/Setting_Timeline_Menu.o
 .debug_aranges
                0x00000000000000e8       0x58 ./App/Menu/Timeline_List_Menu.o
 .debug_aranges
                0x0000000000000140       0x48 ./App/Rotary_Encoder.o
 .debug_aranges
                0x0000000000000188       0x50 ./App/Timeline_Manage.o
 .debug_aranges
                0x00000000000001d8       0x30 ./App/real_time.o
 .debug_aranges
                0x0000000000000208       0x68 ./Core/Src/main.o
 .debug_aranges
                0x0000000000000270       0x60 ./Core/Src/stm32f1xx_hal_msp.o
 .debug_aranges
                0x00000000000002d0       0x70 ./Core/Src/stm32f1xx_it.o
 .debug_aranges
                0x0000000000000340       0x20 ./Core/Src/sysmem.o
 .debug_aranges
                0x0000000000000360       0x28 ./Core/Src/system_stm32f1xx.o
 .debug_aranges
                0x0000000000000388       0x28 ./Core/Startup/startup_stm32f103c8tx.o
 .debug_aranges
                0x00000000000003b0       0xe0 ./Drivers/STM32F1xx_HAL_Driver/Src/stm32f1xx_hal.o
 .debug_aranges
                0x0000000000000490      0x100 ./Drivers/STM32F1xx_HAL_Driver/Src/stm32f1xx_hal_cortex.o
 .debug_aranges
                0x0000000000000590       0x80 ./Drivers/STM32F1xx_HAL_Driver/Src/stm32f1xx_hal_dma.o
 .debug_aranges
                0x0000000000000610       0x88 ./Drivers/STM32F1xx_HAL_Driver/Src/stm32f1xx_hal_flash.o
 .debug_aranges
                0x0000000000000698       0x98 ./Drivers/STM32F1xx_HAL_Driver/Src/stm32f1xx_hal_flash_ex.o
 .debug_aranges
                0x0000000000000730       0x58 ./Drivers/STM32F1xx_HAL_Driver/Src/stm32f1xx_hal_gpio.o
 .debug_aranges
                0x0000000000000788      0x2a0 ./Drivers/STM32F1xx_HAL_Driver/Src/stm32f1xx_hal_i2c.o
 .debug_aranges
                0x0000000000000a28       0x90 ./Drivers/STM32F1xx_HAL_Driver/Src/stm32f1xx_hal_rcc.o
 .debug_aranges
                0x0000000000000ab8      0x3d0 ./Drivers/STM32F1xx_HAL_Driver/Src/stm32f1xx_hal_tim.o
 .debug_aranges
                0x0000000000000e88      0x168 ./Drivers/STM32F1xx_HAL_Driver/Src/stm32f1xx_hal_tim_ex.o
 .debug_aranges
                0x0000000000000ff0      0x200 ./Drivers/STM32F1xx_HAL_Driver/Src/stm32f1xx_hal_uart.o
 .debug_aranges
                0x00000000000011f0       0x50 ./Libraries/DHT.o
 .debug_aranges
                0x0000000000001240       0x50 ./Libraries/DS3231.o
 .debug_aranges
                0x0000000000001290       0x28 ./Libraries/Delay_us.o
 .debug_aranges
                0x00000000000012b8       0x40 ./Libraries/Encoder.o
 .debug_aranges
                0x00000000000012f8       0x90 ./Libraries/LCD_I2C.o
 .debug_aranges
                0x0000000000001388       0x30 ./Libraries/button.o
 .debug_aranges
                0x00000000000013b8       0x30 ./Libraries/flash.o

.debug_ranges   0x0000000000000000     0x1260
 .debug_ranges  0x0000000000000000       0x30 ./App/Menu/Main_Menu.o
 .debug_ranges  0x0000000000000030       0x18 ./App/Menu/Menu.o
 .debug_ranges  0x0000000000000048       0x30 ./App/Menu/Setting_Realtime_Menu.o
 .debug_ranges  0x0000000000000078       0x48 ./App/Menu/Setting_Timeline_Menu.o
 .debug_ranges  0x00000000000000c0       0x48 ./App/Menu/Timeline_List_Menu.o
 .debug_ranges  0x0000000000000108       0x38 ./App/Rotary_Encoder.o
 .debug_ranges  0x0000000000000140       0x40 ./App/Timeline_Manage.o
 .debug_ranges  0x0000000000000180       0x20 ./App/real_time.o
 .debug_ranges  0x00000000000001a0       0x58 ./Core/Src/main.o
 .debug_ranges  0x00000000000001f8       0x50 ./Core/Src/stm32f1xx_hal_msp.o
 .debug_ranges  0x0000000000000248       0x60 ./Core/Src/stm32f1xx_it.o
 .debug_ranges  0x00000000000002a8       0x10 ./Core/Src/sysmem.o
 .debug_ranges  0x00000000000002b8       0x18 ./Core/Src/system_stm32f1xx.o
 .debug_ranges  0x00000000000002d0       0x20 ./Core/Startup/startup_stm32f103c8tx.o
 .debug_ranges  0x00000000000002f0       0xd0 ./Drivers/STM32F1xx_HAL_Driver/Src/stm32f1xx_hal.o
 .debug_ranges  0x00000000000003c0       0xf0 ./Drivers/STM32F1xx_HAL_Driver/Src/stm32f1xx_hal_cortex.o
 .debug_ranges  0x00000000000004b0       0x70 ./Drivers/STM32F1xx_HAL_Driver/Src/stm32f1xx_hal_dma.o
 .debug_ranges  0x0000000000000520       0x78 ./Drivers/STM32F1xx_HAL_Driver/Src/stm32f1xx_hal_flash.o
 .debug_ranges  0x0000000000000598       0x88 ./Drivers/STM32F1xx_HAL_Driver/Src/stm32f1xx_hal_flash_ex.o
 .debug_ranges  0x0000000000000620       0x48 ./Drivers/STM32F1xx_HAL_Driver/Src/stm32f1xx_hal_gpio.o
 .debug_ranges  0x0000000000000668      0x2b8 ./Drivers/STM32F1xx_HAL_Driver/Src/stm32f1xx_hal_i2c.o
 .debug_ranges  0x0000000000000920       0x80 ./Drivers/STM32F1xx_HAL_Driver/Src/stm32f1xx_hal_rcc.o
 .debug_ranges  0x00000000000009a0      0x3c0 ./Drivers/STM32F1xx_HAL_Driver/Src/stm32f1xx_hal_tim.o
 .debug_ranges  0x0000000000000d60      0x158 ./Drivers/STM32F1xx_HAL_Driver/Src/stm32f1xx_hal_tim_ex.o
 .debug_ranges  0x0000000000000eb8      0x220 ./Drivers/STM32F1xx_HAL_Driver/Src/stm32f1xx_hal_uart.o
 .debug_ranges  0x00000000000010d8       0x40 ./Libraries/DHT.o
 .debug_ranges  0x0000000000001118       0x40 ./Libraries/DS3231.o
 .debug_ranges  0x0000000000001158       0x18 ./Libraries/Delay_us.o
 .debug_ranges  0x0000000000001170       0x30 ./Libraries/Encoder.o
 .debug_ranges  0x00000000000011a0       0x80 ./Libraries/LCD_I2C.o
 .debug_ranges  0x0000000000001220       0x20 ./Libraries/button.o
 .debug_ranges  0x0000000000001240       0x20 ./Libraries/flash.o

.debug_macro    0x0000000000000000    0x1b38e
 .debug_macro   0x0000000000000000      0x3eb ./App/Menu/Main_Menu.o
 .debug_macro   0x00000000000003eb      0xa6c ./App/Menu/Main_Menu.o
 .debug_macro   0x0000000000000e57       0x22 ./App/Menu/Main_Menu.o
 .debug_macro   0x0000000000000e79       0x8e ./App/Menu/Main_Menu.o
 .debug_macro   0x0000000000000f07       0x51 ./App/Menu/Main_Menu.o
 .debug_macro   0x0000000000000f58      0x103 ./App/Menu/Main_Menu.o
 .debug_macro   0x000000000000105b       0x6a ./App/Menu/Main_Menu.o
 .debug_macro   0x00000000000010c5      0x1df ./App/Menu/Main_Menu.o
 .debug_macro   0x00000000000012a4      0x221 ./App/Menu/Main_Menu.o
 .debug_macro   0x00000000000014c5       0x2e ./App/Menu/Main_Menu.o
 .debug_macro   0x00000000000014f3       0x22 ./App/Menu/Main_Menu.o
 .debug_macro   0x0000000000001515       0x1c ./App/Menu/Main_Menu.o
 .debug_macro   0x0000000000001531       0x22 ./App/Menu/Main_Menu.o
 .debug_macro   0x0000000000001553       0xbd ./App/Menu/Main_Menu.o
 .debug_macro   0x0000000000001610      0xd23 ./App/Menu/Main_Menu.o
 .debug_macro   0x0000000000002333     0xe09e ./App/Menu/Main_Menu.o
 .debug_macro   0x00000000000103d1       0x6d ./App/Menu/Main_Menu.o
 .debug_macro   0x000000000001043e     0x3468 ./App/Menu/Main_Menu.o
 .debug_macro   0x00000000000138a6      0x174 ./App/Menu/Main_Menu.o
 .debug_macro   0x0000000000013a1a       0x5c ./App/Menu/Main_Menu.o
 .debug_macro   0x0000000000013a76      0x5be ./App/Menu/Main_Menu.o
 .debug_macro   0x0000000000014034      0x289 ./App/Menu/Main_Menu.o
 .debug_macro   0x00000000000142bd      0x1cb ./App/Menu/Main_Menu.o
 .debug_macro   0x0000000000014488      0x114 ./App/Menu/Main_Menu.o
 .debug_macro   0x000000000001459c      0x1b2 ./App/Menu/Main_Menu.o
 .debug_macro   0x000000000001474e       0x27 ./App/Menu/Main_Menu.o
 .debug_macro   0x0000000000014775      0x136 ./App/Menu/Main_Menu.o
 .debug_macro   0x00000000000148ab      0x1bc ./App/Menu/Main_Menu.o
 .debug_macro   0x0000000000014a67       0x34 ./App/Menu/Main_Menu.o
 .debug_macro   0x0000000000014a9b       0x3c ./App/Menu/Main_Menu.o
 .debug_macro   0x0000000000014ad7       0x57 ./App/Menu/Main_Menu.o
 .debug_macro   0x0000000000014b2e       0x88 ./App/Menu/Main_Menu.o
 .debug_macro   0x0000000000014bb6      0x241 ./App/Menu/Main_Menu.o
 .debug_macro   0x0000000000014df7      0x287 ./App/Menu/Main_Menu.o
 .debug_macro   0x000000000001507e      0x141 ./App/Menu/Main_Menu.o
 .debug_macro   0x00000000000151bf      0x8d1 ./App/Menu/Main_Menu.o
 .debug_macro   0x0000000000015a90      0x279 ./App/Menu/Main_Menu.o
 .debug_macro   0x0000000000015d09       0x83 ./App/Menu/Main_Menu.o
 .debug_macro   0x0000000000015d8c       0x58 ./App/Menu/Main_Menu.o
 .debug_macro   0x0000000000015de4       0x52 ./App/Menu/Main_Menu.o
 .debug_macro   0x0000000000015e36       0x18 ./App/Menu/Main_Menu.o
 .debug_macro   0x0000000000015e4e       0x3c ./App/Menu/Main_Menu.o
 .debug_macro   0x0000000000015e8a       0x34 ./App/Menu/Main_Menu.o
 .debug_macro   0x0000000000015ebe       0x16 ./App/Menu/Main_Menu.o
 .debug_macro   0x0000000000015ed4       0x35 ./App/Menu/Main_Menu.o
 .debug_macro   0x0000000000015f09      0x341 ./App/Menu/Main_Menu.o
 .debug_macro   0x000000000001624a       0x16 ./App/Menu/Main_Menu.o
 .debug_macro   0x0000000000016260       0x43 ./App/Menu/Main_Menu.o
 .debug_macro   0x00000000000162a3       0x34 ./App/Menu/Main_Menu.o
 .debug_macro   0x00000000000162d7       0x10 ./App/Menu/Main_Menu.o
 .debug_macro   0x00000000000162e7       0x58 ./App/Menu/Main_Menu.o
 .debug_macro   0x000000000001633f       0x71 ./App/Menu/Main_Menu.o
 .debug_macro   0x00000000000163b0       0x1c ./App/Menu/Main_Menu.o
 .debug_macro   0x00000000000163cc      0x12a ./App/Menu/Main_Menu.o
 .debug_macro   0x00000000000164f6       0x10 ./App/Menu/Main_Menu.o
 .debug_macro   0x0000000000016506       0x1c ./App/Menu/Main_Menu.o
 .debug_macro   0x0000000000016522       0x52 ./App/Menu/Main_Menu.o
 .debug_macro   0x0000000000016574       0x22 ./App/Menu/Main_Menu.o
 .debug_macro   0x0000000000016596       0x10 ./App/Menu/Main_Menu.o
 .debug_macro   0x00000000000165a6       0x52 ./App/Menu/Main_Menu.o
 .debug_macro   0x00000000000165f8       0xd5 ./App/Menu/Main_Menu.o
 .debug_macro   0x00000000000166cd       0x1c ./App/Menu/Main_Menu.o
 .debug_macro   0x00000000000166e9       0x3d ./App/Menu/Main_Menu.o
 .debug_macro   0x0000000000016726       0x16 ./App/Menu/Main_Menu.o
 .debug_macro   0x000000000001673c      0x145 ./App/Menu/Main_Menu.o
 .debug_macro   0x0000000000016881       0x16 ./App/Menu/Main_Menu.o
 .debug_macro   0x0000000000016897       0x20 ./App/Menu/Main_Menu.o
 .debug_macro   0x00000000000168b7       0xca ./App/Menu/Main_Menu.o
 .debug_macro   0x0000000000016981       0x10 ./App/Menu/Main_Menu.o
 .debug_macro   0x0000000000016991       0x16 ./App/Menu/Main_Menu.o
 .debug_macro   0x00000000000169a7       0x16 ./App/Menu/Main_Menu.o
 .debug_macro   0x00000000000169bd       0x16 ./App/Menu/Main_Menu.o
 .debug_macro   0x00000000000169d3       0x29 ./App/Menu/Main_Menu.o
 .debug_macro   0x00000000000169fc      0x3e1 ./App/Menu/Menu.o
 .debug_macro   0x0000000000016ddd      0x3e1 ./App/Menu/Setting_Realtime_Menu.o
 .debug_macro   0x00000000000171be      0x3ef ./App/Menu/Setting_Timeline_Menu.o
 .debug_macro   0x00000000000175ad       0x10 ./App/Menu/Setting_Timeline_Menu.o
 .debug_macro   0x00000000000175bd       0x10 ./App/Menu/Setting_Timeline_Menu.o
 .debug_macro   0x00000000000175cd       0x4c ./App/Menu/Setting_Timeline_Menu.o
 .debug_macro   0x0000000000017619       0x10 ./App/Menu/Setting_Timeline_Menu.o
 .debug_macro   0x0000000000017629      0x3f6 ./App/Menu/Timeline_List_Menu.o
 .debug_macro   0x0000000000017a1f      0x3fe ./App/Rotary_Encoder.o
 .debug_macro   0x0000000000017e1d       0x10 ./App/Rotary_Encoder.o
 .debug_macro   0x0000000000017e2d      0x39e ./App/Timeline_Manage.o
 .debug_macro   0x00000000000181cb      0x3eb ./App/real_time.o
 .debug_macro   0x00000000000185b6      0x3fb ./Core/Src/main.o
 .debug_macro   0x00000000000189b1      0x1b7 ./Core/Src/stm32f1xx_hal_msp.o
 .debug_macro   0x0000000000018b68      0x1c1 ./Core/Src/stm32f1xx_it.o
 .debug_macro   0x0000000000018d29       0xff ./Core/Src/sysmem.o
 .debug_macro   0x0000000000018e28      0x23b ./Core/Src/sysmem.o
 .debug_macro   0x0000000000019063      0x1ad ./Core/Src/system_stm32f1xx.o
 .debug_macro   0x0000000000019210      0x1d1 ./Drivers/STM32F1xx_HAL_Driver/Src/stm32f1xx_hal.o
 .debug_macro   0x00000000000193e1      0x1ad ./Drivers/STM32F1xx_HAL_Driver/Src/stm32f1xx_hal_cortex.o
 .debug_macro   0x000000000001958e      0x1ad ./Drivers/STM32F1xx_HAL_Driver/Src/stm32f1xx_hal_dma.o
 .debug_macro   0x000000000001973b      0x1ad ./Drivers/STM32F1xx_HAL_Driver/Src/stm32f1xx_hal_flash.o
 .debug_macro   0x00000000000198e8      0x1bf ./Drivers/STM32F1xx_HAL_Driver/Src/stm32f1xx_hal_flash_ex.o
 .debug_macro   0x0000000000019aa7      0x218 ./Drivers/STM32F1xx_HAL_Driver/Src/stm32f1xx_hal_gpio.o
 .debug_macro   0x0000000000019cbf      0x1f4 ./Drivers/STM32F1xx_HAL_Driver/Src/stm32f1xx_hal_i2c.o
 .debug_macro   0x0000000000019eb3      0x1bf ./Drivers/STM32F1xx_HAL_Driver/Src/stm32f1xx_hal_rcc.o
 .debug_macro   0x000000000001a072      0x1ae ./Drivers/STM32F1xx_HAL_Driver/Src/stm32f1xx_hal_tim.o
 .debug_macro   0x000000000001a220      0x1ad ./Drivers/STM32F1xx_HAL_Driver/Src/stm32f1xx_hal_tim_ex.o
 .debug_macro   0x000000000001a3cd      0x1ae ./Drivers/STM32F1xx_HAL_Driver/Src/stm32f1xx_hal_uart.o
 .debug_macro   0x000000000001a57b      0x1dd ./Libraries/DHT.o
 .debug_macro   0x000000000001a758      0x1d9 ./Libraries/DS3231.o
 .debug_macro   0x000000000001a931      0x1c1 ./Libraries/Delay_us.o
 .debug_macro   0x000000000001aaf2      0x1c0 ./Libraries/Encoder.o
 .debug_macro   0x000000000001acb2      0x34f ./Libraries/LCD_I2C.o
 .debug_macro   0x000000000001b001      0x1c7 ./Libraries/button.o
 .debug_macro   0x000000000001b1c8      0x1c6 ./Libraries/flash.o

.debug_line     0x0000000000000000    0x1ac3a
 .debug_line    0x0000000000000000      0xb8e ./App/Menu/Main_Menu.o
 .debug_line    0x0000000000000b8e      0xa60 ./App/Menu/Menu.o
 .debug_line    0x00000000000015ee      0xc2b ./App/Menu/Setting_Realtime_Menu.o
 .debug_line    0x0000000000002219      0xbdb ./App/Menu/Setting_Timeline_Menu.o
 .debug_line    0x0000000000002df4      0xcf5 ./App/Menu/Timeline_List_Menu.o
 .debug_line    0x0000000000003ae9      0xbcb ./App/Rotary_Encoder.o
 .debug_line    0x00000000000046b4      0xb05 ./App/Timeline_Manage.o
 .debug_line    0x00000000000051b9      0xb95 ./App/real_time.o
 .debug_line    0x0000000000005d4e      0xd46 ./Core/Src/main.o
 .debug_line    0x0000000000006a94      0x7e8 ./Core/Src/stm32f1xx_hal_msp.o
 .debug_line    0x000000000000727c      0x77b ./Core/Src/stm32f1xx_it.o
 .debug_line    0x00000000000079f7      0x4ea ./Core/Src/sysmem.o
 .debug_line    0x0000000000007ee1      0x707 ./Core/Src/system_stm32f1xx.o
 .debug_line    0x00000000000085e8       0x87 ./Core/Startup/startup_stm32f103c8tx.o
 .debug_line    0x000000000000866f      0x934 ./Drivers/STM32F1xx_HAL_Driver/Src/stm32f1xx_hal.o
 .debug_line    0x0000000000008fa3      0xb1c ./Drivers/STM32F1xx_HAL_Driver/Src/stm32f1xx_hal_cortex.o
 .debug_line    0x0000000000009abf      0xd8c ./Drivers/STM32F1xx_HAL_Driver/Src/stm32f1xx_hal_dma.o
 .debug_line    0x000000000000a84b      0xa11 ./Drivers/STM32F1xx_HAL_Driver/Src/stm32f1xx_hal_flash.o
 .debug_line    0x000000000000b25c      0xb00 ./Drivers/STM32F1xx_HAL_Driver/Src/stm32f1xx_hal_flash_ex.o
 .debug_line    0x000000000000bd5c      0x9cb ./Drivers/STM32F1xx_HAL_Driver/Src/stm32f1xx_hal_gpio.o
 .debug_line    0x000000000000c727     0x3a1e ./Drivers/STM32F1xx_HAL_Driver/Src/stm32f1xx_hal_i2c.o
 .debug_line    0x0000000000010145      0xd42 ./Drivers/STM32F1xx_HAL_Driver/Src/stm32f1xx_hal_rcc.o
 .debug_line    0x0000000000010e87     0x32ea ./Drivers/STM32F1xx_HAL_Driver/Src/stm32f1xx_hal_tim.o
 .debug_line    0x0000000000014171     0x185c ./Drivers/STM32F1xx_HAL_Driver/Src/stm32f1xx_hal_tim_ex.o
 .debug_line    0x00000000000159cd     0x1a0f ./Drivers/STM32F1xx_HAL_Driver/Src/stm32f1xx_hal_uart.o
 .debug_line    0x00000000000173dc      0x894 ./Libraries/DHT.o
 .debug_line    0x0000000000017c70      0x78c ./Libraries/DS3231.o
 .debug_line    0x00000000000183fc      0x6c1 ./Libraries/Delay_us.o
 .debug_line    0x0000000000018abd      0x731 ./Libraries/Encoder.o
 .debug_line    0x00000000000191ee      0xb57 ./Libraries/LCD_I2C.o
 .debug_line    0x0000000000019d45      0x786 ./Libraries/button.o
 .debug_line    0x000000000001a4cb      0x76f ./Libraries/flash.o

.debug_str      0x0000000000000000    0x8ea87
 .debug_str     0x0000000000000000    0x89116 ./App/Menu/Main_Menu.o
                                      0x8959f (size before relaxing)
 .debug_str     0x0000000000089116       0x7d ./App/Menu/Menu.o
                                      0x89437 (size before relaxing)
 .debug_str     0x0000000000089193      0x192 ./App/Menu/Setting_Realtime_Menu.o
                                      0x89635 (size before relaxing)
 .debug_str     0x0000000000089325      0x21a ./App/Menu/Setting_Timeline_Menu.o
                                      0x89663 (size before relaxing)
 .debug_str     0x000000000008953f      0x1ea ./App/Menu/Timeline_List_Menu.o
                                      0x89650 (size before relaxing)
 .debug_str     0x0000000000089729      0x4a7 ./App/Rotary_Encoder.o
                                      0x89adf (size before relaxing)
 .debug_str     0x0000000000089bd0      0x11e ./App/Timeline_Manage.o
                                      0x88bef (size before relaxing)
 .debug_str     0x0000000000089cee      0x14e ./App/real_time.o
                                      0x89588 (size before relaxing)
 .debug_str     0x0000000000089e3c      0x6dc ./Core/Src/main.o
                                      0x89e7f (size before relaxing)
 .debug_str     0x000000000008a518      0x3d5 ./Core/Src/stm32f1xx_hal_msp.o
                                      0x8590d (size before relaxing)
 .debug_str     0x000000000008a8ed      0x112 ./Core/Src/stm32f1xx_it.o
                                      0x852d9 (size before relaxing)
 .debug_str     0x000000000008a9ff      0x4da ./Core/Src/sysmem.o
                                       0x5d7f (size before relaxing)
 .debug_str     0x000000000008aed9       0x7e ./Core/Src/system_stm32f1xx.o
                                      0x84bd6 (size before relaxing)
 .debug_str     0x000000000008af57       0x36 ./Core/Startup/startup_stm32f103c8tx.o
                                         0x99 (size before relaxing)
 .debug_str     0x000000000008af8d      0x378 ./Drivers/STM32F1xx_HAL_Driver/Src/stm32f1xx_hal.o
                                      0x85309 (size before relaxing)
 .debug_str     0x000000000008b305      0x294 ./Drivers/STM32F1xx_HAL_Driver/Src/stm32f1xx_hal_cortex.o
                                      0x85255 (size before relaxing)
 .debug_str     0x000000000008b599      0x230 ./Drivers/STM32F1xx_HAL_Driver/Src/stm32f1xx_hal_dma.o
                                      0x84f7f (size before relaxing)
 .debug_str     0x000000000008b7c9      0x290 ./Drivers/STM32F1xx_HAL_Driver/Src/stm32f1xx_hal_flash.o
                                      0x84eb1 (size before relaxing)
 .debug_str     0x000000000008ba59      0x349 ./Drivers/STM32F1xx_HAL_Driver/Src/stm32f1xx_hal_flash_ex.o
                                      0x8505f (size before relaxing)
 .debug_str     0x000000000008bda2      0x2d2 ./Drivers/STM32F1xx_HAL_Driver/Src/stm32f1xx_hal_gpio.o
                                      0x84f5c (size before relaxing)
 .debug_str     0x000000000008c074      0xb55 ./Drivers/STM32F1xx_HAL_Driver/Src/stm32f1xx_hal_i2c.o
                                      0x85c4a (size before relaxing)
 .debug_str     0x000000000008cbc9      0x209 ./Drivers/STM32F1xx_HAL_Driver/Src/stm32f1xx_hal_rcc.o
                                      0x85005 (size before relaxing)
 .debug_str     0x000000000008cdd2      0xce5 ./Drivers/STM32F1xx_HAL_Driver/Src/stm32f1xx_hal_tim.o
                                      0x85ff0 (size before relaxing)
 .debug_str     0x000000000008dab7      0x493 ./Drivers/STM32F1xx_HAL_Driver/Src/stm32f1xx_hal_tim_ex.o
                                      0x8580c (size before relaxing)
 .debug_str     0x000000000008df4a      0x5bc ./Drivers/STM32F1xx_HAL_Driver/Src/stm32f1xx_hal_uart.o
                                      0x85610 (size before relaxing)
 .debug_str     0x000000000008e506      0x106 ./Libraries/DHT.o
                                      0x85213 (size before relaxing)
 .debug_str     0x000000000008e60c      0x102 ./Libraries/DS3231.o
                                      0x851c9 (size before relaxing)
 .debug_str     0x000000000008e70e       0x31 ./Libraries/Delay_us.o
                                      0x8507b (size before relaxing)
 .debug_str     0x000000000008e73f       0xb3 ./Libraries/Encoder.o
                                      0x85182 (size before relaxing)
 .debug_str     0x000000000008e7f2      0x121 ./Libraries/LCD_I2C.o
                                      0x8935e (size before relaxing)
 .debug_str     0x000000000008e913      0x12a ./Libraries/button.o
                                      0x84d9d (size before relaxing)
 .debug_str     0x000000000008ea3d       0x4a ./Libraries/flash.o
                                      0x84ca1 (size before relaxing)

.comment        0x0000000000000000       0x50
 .comment       0x0000000000000000       0x50 ./App/Menu/Main_Menu.o
                                         0x51 (size before relaxing)
 .comment       0x0000000000000050       0x51 ./App/Menu/Menu.o
 .comment       0x0000000000000050       0x51 ./App/Menu/Setting_Realtime_Menu.o
 .comment       0x0000000000000050       0x51 ./App/Menu/Setting_Timeline_Menu.o
 .comment       0x0000000000000050       0x51 ./App/Menu/Timeline_List_Menu.o
 .comment       0x0000000000000050       0x51 ./App/Rotary_Encoder.o
 .comment       0x0000000000000050       0x51 ./App/Timeline_Manage.o
 .comment       0x0000000000000050       0x51 ./App/real_time.o
 .comment       0x0000000000000050       0x51 ./Core/Src/main.o
 .comment       0x0000000000000050       0x51 ./Core/Src/stm32f1xx_hal_msp.o
 .comment       0x0000000000000050       0x51 ./Core/Src/stm32f1xx_it.o
 .comment       0x0000000000000050       0x51 ./Core/Src/sysmem.o
 .comment       0x0000000000000050       0x51 ./Core/Src/system_stm32f1xx.o
 .comment       0x0000000000000050       0x51 ./Drivers/STM32F1xx_HAL_Driver/Src/stm32f1xx_hal.o
 .comment       0x0000000000000050       0x51 ./Drivers/STM32F1xx_HAL_Driver/Src/stm32f1xx_hal_cortex.o
 .comment       0x0000000000000050       0x51 ./Drivers/STM32F1xx_HAL_Driver/Src/stm32f1xx_hal_dma.o
 .comment       0x0000000000000050       0x51 ./Drivers/STM32F1xx_HAL_Driver/Src/stm32f1xx_hal_flash.o
 .comment       0x0000000000000050       0x51 ./Drivers/STM32F1xx_HAL_Driver/Src/stm32f1xx_hal_flash_ex.o
 .comment       0x0000000000000050       0x51 ./Drivers/STM32F1xx_HAL_Driver/Src/stm32f1xx_hal_gpio.o
 .comment       0x0000000000000050       0x51 ./Drivers/STM32F1xx_HAL_Driver/Src/stm32f1xx_hal_i2c.o
 .comment       0x0000000000000050       0x51 ./Drivers/STM32F1xx_HAL_Driver/Src/stm32f1xx_hal_rcc.o
 .comment       0x0000000000000050       0x51 ./Drivers/STM32F1xx_HAL_Driver/Src/stm32f1xx_hal_tim.o
 .comment       0x0000000000000050       0x51 ./Drivers/STM32F1xx_HAL_Driver/Src/stm32f1xx_hal_tim_ex.o
 .comment       0x0000000000000050       0x51 ./Drivers/STM32F1xx_HAL_Driver/Src/stm32f1xx_hal_uart.o
 .comment       0x0000000000000050       0x51 ./Libraries/DHT.o
 .comment       0x0000000000000050       0x51 ./Libraries/DS3231.o
 .comment       0x0000000000000050       0x51 ./Libraries/Delay_us.o
 .comment       0x0000000000000050       0x51 ./Libraries/Encoder.o
 .comment       0x0000000000000050       0x51 ./Libraries/LCD_I2C.o
 .comment       0x0000000000000050       0x51 ./Libraries/button.o
 .comment       0x0000000000000050       0x51 ./Libraries/flash.o

.debug_frame    0x0000000000000000     0x55d4
 .debug_frame   0x0000000000000000       0xc4 ./App/Menu/Main_Menu.o
 .debug_frame   0x00000000000000c4       0x50 ./App/Menu/Menu.o
 .debug_frame   0x0000000000000114       0xd4 ./App/Menu/Setting_Realtime_Menu.o
 .debug_frame   0x00000000000001e8       0xc8 ./App/Menu/Setting_Timeline_Menu.o
 .debug_frame   0x00000000000002b0      0x134 ./App/Menu/Timeline_List_Menu.o
 .debug_frame   0x00000000000003e4       0xd8 ./App/Rotary_Encoder.o
 .debug_frame   0x00000000000004bc      0x10c ./App/Timeline_Manage.o
 .debug_frame   0x00000000000005c8       0x6c ./App/real_time.o
 .debug_frame   0x0000000000000634      0x148 ./Core/Src/main.o
 .debug_frame   0x000000000000077c      0x160 ./Core/Src/stm32f1xx_hal_msp.o
 .debug_frame   0x00000000000008dc      0x13c ./Core/Src/stm32f1xx_it.o
 .debug_frame   0x0000000000000a18       0x34 ./Core/Src/sysmem.o
 .debug_frame   0x0000000000000a4c       0x58 ./Core/Src/system_stm32f1xx.o
 .debug_frame   0x0000000000000aa4      0x334 ./Drivers/STM32F1xx_HAL_Driver/Src/stm32f1xx_hal.o
 .debug_frame   0x0000000000000dd8      0x428 ./Drivers/STM32F1xx_HAL_Driver/Src/stm32f1xx_hal_cortex.o
 .debug_frame   0x0000000000001200      0x208 ./Drivers/STM32F1xx_HAL_Driver/Src/stm32f1xx_hal_dma.o
 .debug_frame   0x0000000000001408      0x20c ./Drivers/STM32F1xx_HAL_Driver/Src/stm32f1xx_hal_flash.o
 .debug_frame   0x0000000000001614      0x258 ./Drivers/STM32F1xx_HAL_Driver/Src/stm32f1xx_hal_flash_ex.o
 .debug_frame   0x000000000000186c      0x14c ./Drivers/STM32F1xx_HAL_Driver/Src/stm32f1xx_hal_gpio.o
 .debug_frame   0x00000000000019b8      0xc5c ./Drivers/STM32F1xx_HAL_Driver/Src/stm32f1xx_hal_i2c.o
 .debug_frame   0x0000000000002614      0x21c ./Drivers/STM32F1xx_HAL_Driver/Src/stm32f1xx_hal_rcc.o
 .debug_frame   0x0000000000002830     0x11b8 ./Drivers/STM32F1xx_HAL_Driver/Src/stm32f1xx_hal_tim.o
 .debug_frame   0x00000000000039e8      0x638 ./Drivers/STM32F1xx_HAL_Driver/Src/stm32f1xx_hal_tim_ex.o
 .debug_frame   0x0000000000004020      0x914 ./Drivers/STM32F1xx_HAL_Driver/Src/stm32f1xx_hal_uart.o
 .debug_frame   0x0000000000004934      0x10c ./Libraries/DHT.o
 .debug_frame   0x0000000000004a40      0x118 ./Libraries/DS3231.o
 .debug_frame   0x0000000000004b58       0x5c ./Libraries/Delay_us.o
 .debug_frame   0x0000000000004bb4       0xd0 ./Libraries/Encoder.o
 .debug_frame   0x0000000000004c84      0x240 ./Libraries/LCD_I2C.o
 .debug_frame   0x0000000000004ec4       0x84 ./Libraries/button.o
 .debug_frame   0x0000000000004f48       0x84 ./Libraries/flash.o
 .debug_frame   0x0000000000004fcc       0x20 c:/st/stm32cubeide_1.10.1/stm32cubeide/plugins/com.st.stm32cube.ide.mcu.externaltools.gnu-tools-for-stm32.10.3-2021.10.win32_1.0.0.202111181127/tools/bin/../lib/gcc/arm-none-eabi/10.3.1/../../../../arm-none-eabi/lib/thumb/v7-m/nofp\libc_nano.a(lib_a-errno.o)
 .debug_frame   0x0000000000004fec       0x2c c:/st/stm32cubeide_1.10.1/stm32cubeide/plugins/com.st.stm32cube.ide.mcu.externaltools.gnu-tools-for-stm32.10.3-2021.10.win32_1.0.0.202111181127/tools/bin/../lib/gcc/arm-none-eabi/10.3.1/../../../../arm-none-eabi/lib/thumb/v7-m/nofp\libc_nano.a(lib_a-init.o)
 .debug_frame   0x0000000000005018       0x30 c:/st/stm32cubeide_1.10.1/stm32cubeide/plugins/com.st.stm32cube.ide.mcu.externaltools.gnu-tools-for-stm32.10.3-2021.10.win32_1.0.0.202111181127/tools/bin/../lib/gcc/arm-none-eabi/10.3.1/../../../../arm-none-eabi/lib/thumb/v7-m/nofp\libc_nano.a(lib_a-malloc.o)
 .debug_frame   0x0000000000005048       0x20 c:/st/stm32cubeide_1.10.1/stm32cubeide/plugins/com.st.stm32cube.ide.mcu.externaltools.gnu-tools-for-stm32.10.3-2021.10.win32_1.0.0.202111181127/tools/bin/../lib/gcc/arm-none-eabi/10.3.1/../../../../arm-none-eabi/lib/thumb/v7-m/nofp\libc_nano.a(lib_a-memset.o)
 .debug_frame   0x0000000000005068       0x38 c:/st/stm32cubeide_1.10.1/stm32cubeide/plugins/com.st.stm32cube.ide.mcu.externaltools.gnu-tools-for-stm32.10.3-2021.10.win32_1.0.0.202111181127/tools/bin/../lib/gcc/arm-none-eabi/10.3.1/../../../../arm-none-eabi/lib/thumb/v7-m/nofp\libc_nano.a(lib_a-nano-freer.o)
 .debug_frame   0x00000000000050a0       0x4c c:/st/stm32cubeide_1.10.1/stm32cubeide/plugins/com.st.stm32cube.ide.mcu.externaltools.gnu-tools-for-stm32.10.3-2021.10.win32_1.0.0.202111181127/tools/bin/../lib/gcc/arm-none-eabi/10.3.1/../../../../arm-none-eabi/lib/thumb/v7-m/nofp\libc_nano.a(lib_a-nano-mallocr.o)
 .debug_frame   0x00000000000050ec       0x2c c:/st/stm32cubeide_1.10.1/stm32cubeide/plugins/com.st.stm32cube.ide.mcu.externaltools.gnu-tools-for-stm32.10.3-2021.10.win32_1.0.0.202111181127/tools/bin/../lib/gcc/arm-none-eabi/10.3.1/../../../../arm-none-eabi/lib/thumb/v7-m/nofp\libc_nano.a(lib_a-sbrkr.o)
 .debug_frame   0x0000000000005118       0x6c c:/st/stm32cubeide_1.10.1/stm32cubeide/plugins/com.st.stm32cube.ide.mcu.externaltools.gnu-tools-for-stm32.10.3-2021.10.win32_1.0.0.202111181127/tools/bin/../lib/gcc/arm-none-eabi/10.3.1/../../../../arm-none-eabi/lib/thumb/v7-m/nofp\libc_nano.a(lib_a-sprintf.o)
 .debug_frame   0x0000000000005184       0x20 c:/st/stm32cubeide_1.10.1/stm32cubeide/plugins/com.st.stm32cube.ide.mcu.externaltools.gnu-tools-for-stm32.10.3-2021.10.win32_1.0.0.202111181127/tools/bin/../lib/gcc/arm-none-eabi/10.3.1/../../../../arm-none-eabi/lib/thumb/v7-m/nofp\libc_nano.a(lib_a-strcpy.o)
 .debug_frame   0x00000000000051a4       0x3c c:/st/stm32cubeide_1.10.1/stm32cubeide/plugins/com.st.stm32cube.ide.mcu.externaltools.gnu-tools-for-stm32.10.3-2021.10.win32_1.0.0.202111181127/tools/bin/../lib/gcc/arm-none-eabi/10.3.1/../../../../arm-none-eabi/lib/thumb/v7-m/nofp\libc_nano.a(lib_a-vsprintf.o)
 .debug_frame   0x00000000000051e0       0x30 c:/st/stm32cubeide_1.10.1/stm32cubeide/plugins/com.st.stm32cube.ide.mcu.externaltools.gnu-tools-for-stm32.10.3-2021.10.win32_1.0.0.202111181127/tools/bin/../lib/gcc/arm-none-eabi/10.3.1/../../../../arm-none-eabi/lib/thumb/v7-m/nofp\libc_nano.a(lib_a-mlock.o)
 .debug_frame   0x0000000000005210       0x90 c:/st/stm32cubeide_1.10.1/stm32cubeide/plugins/com.st.stm32cube.ide.mcu.externaltools.gnu-tools-for-stm32.10.3-2021.10.win32_1.0.0.202111181127/tools/bin/../lib/gcc/arm-none-eabi/10.3.1/../../../../arm-none-eabi/lib/thumb/v7-m/nofp\libc_nano.a(lib_a-nano-svfprintf.o)
 .debug_frame   0x00000000000052a0       0x60 c:/st/stm32cubeide_1.10.1/stm32cubeide/plugins/com.st.stm32cube.ide.mcu.externaltools.gnu-tools-for-stm32.10.3-2021.10.win32_1.0.0.202111181127/tools/bin/../lib/gcc/arm-none-eabi/10.3.1/../../../../arm-none-eabi/lib/thumb/v7-m/nofp\libc_nano.a(lib_a-nano-vfprintf_i.o)
 .debug_frame   0x0000000000005300       0x5c c:/st/stm32cubeide_1.10.1/stm32cubeide/plugins/com.st.stm32cube.ide.mcu.externaltools.gnu-tools-for-stm32.10.3-2021.10.win32_1.0.0.202111181127/tools/bin/../lib/gcc/arm-none-eabi/10.3.1/../../../../arm-none-eabi/lib/thumb/v7-m/nofp\libc_nano.a(lib_a-reent.o)
 .debug_frame   0x000000000000535c       0xb0 c:/st/stm32cubeide_1.10.1/stm32cubeide/plugins/com.st.stm32cube.ide.mcu.externaltools.gnu-tools-for-stm32.10.3-2021.10.win32_1.0.0.202111181127/tools/bin/../lib/gcc/arm-none-eabi/10.3.1/../../../../arm-none-eabi/lib/thumb/v7-m/nofp\libc_nano.a(lib_a-lock.o)
 .debug_frame   0x000000000000540c       0x28 c:/st/stm32cubeide_1.10.1/stm32cubeide/plugins/com.st.stm32cube.ide.mcu.externaltools.gnu-tools-for-stm32.10.3-2021.10.win32_1.0.0.202111181127/tools/bin/../lib/gcc/arm-none-eabi/10.3.1/../../../../arm-none-eabi/lib/thumb/v7-m/nofp\libc_nano.a(lib_a-memchr-stub.o)
 .debug_frame   0x0000000000005434       0x28 c:/st/stm32cubeide_1.10.1/stm32cubeide/plugins/com.st.stm32cube.ide.mcu.externaltools.gnu-tools-for-stm32.10.3-2021.10.win32_1.0.0.202111181127/tools/bin/../lib/gcc/arm-none-eabi/10.3.1/../../../../arm-none-eabi/lib/thumb/v7-m/nofp\libc_nano.a(lib_a-memcpy-stub.o)
 .debug_frame   0x000000000000545c       0x28 c:/st/stm32cubeide_1.10.1/stm32cubeide/plugins/com.st.stm32cube.ide.mcu.externaltools.gnu-tools-for-stm32.10.3-2021.10.win32_1.0.0.202111181127/tools/bin/../lib/gcc/arm-none-eabi/10.3.1/../../../../arm-none-eabi/lib/thumb/v7-m/nofp\libc_nano.a(lib_a-memmove.o)
 .debug_frame   0x0000000000005484       0x3c c:/st/stm32cubeide_1.10.1/stm32cubeide/plugins/com.st.stm32cube.ide.mcu.externaltools.gnu-tools-for-stm32.10.3-2021.10.win32_1.0.0.202111181127/tools/bin/../lib/gcc/arm-none-eabi/10.3.1/../../../../arm-none-eabi/lib/thumb/v7-m/nofp\libc_nano.a(lib_a-nano-reallocr.o)
 .debug_frame   0x00000000000054c0       0x20 c:/st/stm32cubeide_1.10.1/stm32cubeide/plugins/com.st.stm32cube.ide.mcu.externaltools.gnu-tools-for-stm32.10.3-2021.10.win32_1.0.0.202111181127/tools/bin/../lib/gcc/arm-none-eabi/10.3.1/../../../../arm-none-eabi/lib/thumb/v7-m/nofp\libc_nano.a(lib_a-nano-msizer.o)
 .debug_frame   0x00000000000054e0       0xac c:/st/stm32cubeide_1.10.1/stm32cubeide/plugins/com.st.stm32cube.ide.mcu.externaltools.gnu-tools-for-stm32.10.3-2021.10.win32_1.0.0.202111181127/tools/bin/../lib/gcc/arm-none-eabi/10.3.1/thumb/v7-m/nofp\libgcc.a(_arm_addsubdf3.o)
 .debug_frame   0x000000000000558c       0x24 c:/st/stm32cubeide_1.10.1/stm32cubeide/plugins/com.st.stm32cube.ide.mcu.externaltools.gnu-tools-for-stm32.10.3-2021.10.win32_1.0.0.202111181127/tools/bin/../lib/gcc/arm-none-eabi/10.3.1/thumb/v7-m/nofp\libgcc.a(_arm_truncdfsf2.o)
 .debug_frame   0x00000000000055b0       0x24 c:/st/stm32cubeide_1.10.1/stm32cubeide/plugins/com.st.stm32cube.ide.mcu.externaltools.gnu-tools-for-stm32.10.3-2021.10.win32_1.0.0.202111181127/tools/bin/../lib/gcc/arm-none-eabi/10.3.1/thumb/v7-m/nofp\libgcc.a(_arm_fixunssfsi.o)
